:1000000027C1000055C1000053C1000051C10000CC
:100010004FC100004DC100004BC1000049C10000AC
:1000200047C1000045C1000043C1000041C10000BC
:100030003FC100003DC100003BC1000039C10000CC
:1000400037C1000035C1000033C1000031C10000DC
:100050002FC100002DC100002BC100007DC5000094
:1000600027C1000043C5000018C5000021C10000E1
:100070001FC100001DC100001BC1000019C100000C
:1000800017C1000015C1000013C1000011C100001C
:100090000FC100000DC100000BC1000009C100002C
:1000A00007C1000005C1000003C1000001C100003C
:1000B000FFC00000FDC00000FBC00000F9C0000050
:1000C000F7C00000F5C00000F3C00000F1C0000060
:1000D000EFC00000EDC00000EBC00000E9C0000070
:1000E000E7C00000A902AC029B029F02A502E30246
:1000F000B002B402BA02BE02C202C802CC02D002EE
:10010000E302D602DA02DE029D03A203A703B103D3
:10011000BB033404C503CD03D503DF03E903F303B5
:1001200002040C043404160420042A0400002100F4
:10013000240027002A002D003000330001010000B8
:10014000040107010A0100002200250028002B00FD
:100150002E003100340002010000050108010B01EE
:10016000000020002300260029002C002F00320070
:100170000001000003010601090105050505070549
:1001800008080808020202020A0A08080404040413
:10019000010101010101010103030303030303033F
:1001A000040707070C0C0C0C0C0C0C0C02020202CE
:1001B00006060606060606060B0B0B0B0B0B0B0BB7
:1001C0000102102020080810204010204080020169
:1001D000020108040201010204081020408080404E
:1001E000201008040201800402018040201008044D
:1001F00002010804020101020408102040800102EB
:1002000004081020408000000A0B02090C0D0E08A3
:1002100007030401000000000000000000000000CF
:1002200000000000000000000000000000000000CE
:10023000000012111000000000000000000000008B
:10024000000000000000000000000000F605010BA7
:1002500011241FBECFEFD1E2DEBFCDBF00E00CBF47
:1002600023E0ACE6B2E001C01D92AA3BB207E1F781
:1002700012E0A0E0B2E0ECECFAE100E00BBF02C05B
:1002800007900D92AC36B107D9F711E0C7E2D1E083
:1002900000E006C021970109802FFE010E94280B73
:1002A000C632D10780E00807A9F78DD50C94550D0B
:1002B000A7CECF92DF92EF92FF920F931F93CF932F
:1002C000DF936C017A018B01C0E0D0E0CE15DF0531
:1002D00089F0D8016D918D01D601ED91FC910190CD
:1002E000F081E02DC6011995892B11F47E0102C021
:1002F0002196ECCFC701DF91CF911F910F91FF9015
:10030000EF90DF90CF900895089580E090E00895F9
:10031000FC01538D448D252F30E0842F90E0821B0B
:10032000930B541710F0CF96089501970895FC0190
:10033000918D828D981761F0828DDF01A80FB11D1C
:100340005D968C91928D9F5F9F73928F90E0089540
:100350008FEF9FEF0895FC01918D828D981731F0FA
:10036000828DE80FF11D858D90E008958FEF9FEF4E
:100370000895FC01918D228D892F90E0805C9F4F24
:10038000821B91098F73992708958BED92E0F1DF1D
:1003900021E0892B09F420E0822F0895FC01848D4F
:1003A000DF01A80FB11DA35ABF4F2C91848D90E09F
:1003B00001968F739927848FA689B7892C93A0897A
:1003C000B1898C9180648C93938D848D981306C031
:1003D0000288F389E02D80818F7D80830895EF92DC
:1003E000FF920F931F93CF93DF93EC0181E0888FEF
:1003F0009B8D8C8D981305C0E889F989808185FDD6
:1004000023C0F62E0B8D10E00F5F1F4F0F731127C7
:10041000E02E8C8DE8120BC00FB607FCFACFE889EE
:10042000F989808185FFF5CFCE01B8DFF2CF8B8DC2
:10043000FE01E80FF11DE35AFF4FF0820B8FEA89AE
:10044000FB898081806207C0EE89FF896083E8892B
:10045000F98980818064808381E090E0DF91CF9191
:100460001F910F91FF90EF900895CF93DF93EC01D0
:10047000888D8823C1F0EA89FB89808185FD05C0CC
:10048000A889B9898C9186FD0EC00FB607FCF5CFFF
:10049000808185FFF2CFA889B9898C9185FFEDCF46
:1004A000CE017CDFE8CFDF91CF91089580E090E02E
:1004B000892B19F06ADF811125C080E090E0892B3B
:1004C00041F080E090E0892B21F00E940000811132
:1004D0001CC080E090E0892B41F080E090E0892B07
:1004E00021F00E940000811113C080E090E0892B70
:1004F000A1F080E090E0892B81F00E940000811142
:100500000AC008950E940000D8CF0E940000E1CFE9
:100510000E940000EACF0C940000089590E0FC01D6
:100520003197E231F10508F04EC08827EE58FF4FB1
:100530008F4F0C94280B809180008F7703C080919F
:1005400080008F7D80938000089580918000877F58
:10055000F9CF84B58F7702C084B58F7D84BD0895AF
:100560008091B0008F7703C08091B0008F7D809321
:10057000B0000895809190008F7707C0809190001F
:100580008F7D03C080919000877F809390000895B5
:100590008091A0008F7707C08091A0008F7D03C05D
:1005A0008091A000877F8093A00008958091200112
:1005B0008F7707C0809120018F7D03C0809120013B
:1005C000877F809320010895CF93DF93282F30E019
:1005D000F901EA5FFD4F8491F901E054FE4FD49197
:1005E000F901E658FE4FC491CC2389F0811196DFC2
:1005F000EC2FF0E0EE0FFF1FE05AFE4FA591B491F3
:10060000EC91ED2381E090E021F480E002C080E0F5
:1006100090E0DF91CF9108951F93CF93DF93282F20
:1006200030E0F901EA5FFD4F8491F901E054FE4F9B
:10063000D491F901E658FE4FC491CC23C1F0162F96
:1006400081116CDFEC2FF0E0EE0FFF1FEA5BFE4F35
:10065000A591B4918FB7F894111105C09C91ED2F1D
:10066000E095E92302C0EC91ED2BEC938FBFDF9175
:10067000CF911F910895CF93DF9390E0FC01E05458
:10068000FE4F2491FC01E658FE4F8491882361F1CE
:1006900090E0880F991FFC01E45DFE4FC591D49155
:1006A000FC01EA5BFE4FA591B491611109C09FB7AF
:1006B000F8948881209582238883EC912E230BC0A7
:1006C000623061F49FB7F8943881822F809583233C
:1006D0008883EC912E2B2C939FBF06C08FB7F89484
:1006E000E8812E2B28838FBFDF91CF9108951F9330
:1006F000CF93DF93182FEB0161E0BDDF209711F45A
:1007000060E004C0CF3FD10531F461E0812FDF917B
:10071000CF911F9181CFE12FF0E0EA5FFD4FE4918F
:100720004E2F50E0FA013197E231F10508F09CC0FC
:100730008827EC57FF4F8F4F8BC784B5806884BDE7
:10074000C7BD97C084B5806284BDC8BD92C080918A
:100750008000806880938000D0938900C0938800D7
:1007600088C080918000806280938000D0938B004D
:10077000C0938A007EC08091800088608093800052
:10078000D0938D00C0938C0074C08091B0008068BD
:100790008093B000C093B3006CC08091B0008062C1
:1007A0008093B000C093B40064C0809190008068D2
:1007B00080939000D0939900C09398005AC0809184
:1007C0009000806280939000D0939B00C0939A0029
:1007D00050C080919000886080939000D0939D00DD
:1007E000C0939C0046C08091A00080688093A000C8
:1007F0008091A0008F7B8093A000D093A900C0932C
:10080000A80037C08091A00080628093A000D093A0
:10081000AB00C093AA002DC08091A0008860809397
:10082000A000D093AD00C093AC0023C08091200104
:10083000806880932001D0932901C093280119C0BA
:1008400080912001806280932001D0932B01C0937E
:100850002A010FC080912001886080932001D093ED
:100860002D01C0932C0105C0C038D1050CF04DCF2F
:1008700047CFDF91CF911F910895863308F08653BB
:1008800090917B00282F2870977F922B90937B006C
:100890008770806480937C0080917A00806480936C
:1008A0007A0080917A0086FDFCCF809178002091BB
:1008B000790090E0922B08953FB7F89480916D02F3
:1008C00090916E02A0916F02B091700226B5A89B24
:1008D00005C02F3F19F00196A11DB11D3FBFBA2FD2
:1008E000A92F982F8827820F911DA11DB11DBC0132
:1008F000CD0142E0660F771F881F991F4A95D1F7F7
:1009000008958F929F92AF92BF92CF92DF92EF9213
:10091000FF926B017C01D0DF4B015C01C114D1045B
:10092000E104F104E9F0C8DFDC01CB018819990981
:10093000AA09BB09883E9340A105B10578F321E0DF
:10094000C21AD108E108F10888EE880E83E0981EEB
:10095000A11CB11CC114D104E104F10421F7DECFC4
:10096000FF90EF90DF90CF90BF90AF909F908F90CF
:100970000895CF93DF93CAE0D2E08881229660E0A9
:1009800070E0B5DE82E0C631D807B9F7DF91CF91CC
:100990000895009761F0FC0101900020E9F731977C
:1009A000AF01481B590BBC018BED92E082CC80E07B
:1009B00090E008958F929F92AF92BF920F931F93F2
:1009C000CF93DF93CDB7DEB7A1970FB6F894DEBF14
:1009D0000FBECDBF19A2423008F44AE08E010F5D70
:1009E0001F4F842E912CA12CB12CA50194010ED661
:1009F000E62FB901CA0101501109EA3014F4E05D93
:100A000001C0E95CD801EC93232B242B252B69F73B
:100A1000C801BFDFA1960FB6F894DEBF0FBECDBFF1
:100A2000DF91CF911F910F91BF90AF909F908F90CA
:100A30000895CF92DF92EF92FF92CF93DF936B01F5
:100A40007C01E091DB02F091DC020190F081E02D6D
:100A50006DE28BED92E01995EC0166277727CB01CB
:100A60006C197D098E099F094AE0A4DF8C0F9D1F38
:100A7000DF91CF91FF90EF90DF90CF900895BC0170
:100A8000990F880B990B97FF02C0D3DF02C04AE091
:100A900091DF86E692E07DCFF4D71F920F920FB6DA
:100AA0000F9211240BB60F922F933F934F935F93A6
:100AB0006F937F938F939F93AF93BF93EF93FF9326
:100AC0008BED92E06BDCFF91EF91BF91AF919F9125
:100AD0008F917F916F915F914F913F912F910F90E7
:100AE0000BBE0F900FBE0F901F9018951F920F9284
:100AF0000FB60F9211240BB60F922F938F939F93E3
:100B0000EF93FF93E091EB02F091EC028081E09192
:100B1000F102F091F20282FD12C090818091F40204
:100B20008F5F8F732091F502821751F0E091F402EC
:100B3000F0E0E552FD4F958F8093F40201C0808173
:100B4000FF91EF919F918F912F910F900BBE0F907E
:100B50000FBE0F901F9018951F920F920FB60F9215
:100B600011242F933F938F939F93AF93BF938091C3
:100B70007B0290917C02A0917D02B0917E02309127
:100B80006C0223E0230F2D3720F40196A11DB11D27
:100B900005C026E8230F0296A11DB11D20936C020B
:100BA00080937B0290937C02A0937D02B0937E029F
:100BB00080916D0290916E02A0916F02B0917002CF
:100BC0000196A11DB11D80936D0290936E02A093BA
:100BD0006F02B0937002BF91AF919F918F913F913F
:100BE0002F910F900FBE0F901F901895CF92DF920C
:100BF000EF92FF921092DE021092DD0288EE93E0F7
:100C0000A0E0B0E08093DF029093E002A093E102C5
:100C1000B093E20288E592E09093DC028093DB02DD
:100C200085EC90E09093E8028093E70284EC90E0FA
:100C30009093EA028093E90280EC90E09093EC02BA
:100C40008093EB0281EC90E09093EE028093ED02B2
:100C500082EC90E09093F0028093EF0286EC90E0BB
:100C60009093F2028093F1021092F4021092F50236
:100C70001092F6021092F702109279031092780304
:100C800010927B0310927A03E6E0F0E0F0937D038C
:100C9000E0937C0388EBC82E8BE0D82EE12CF12C5E
:100CA000C0928603D0928703E0928803F092890372
:100CB00064E070E070938B0360938A0342E050E03D
:100CC00050938D0340938C0323E030E030938F03E7
:100CD00020938E0385E090E090939103809390039E
:100CE000109293031092920310929B0310929A0316
:100CF00010929D0310929C03F0939F03E0939E0338
:100D0000C092A803D092A903E092AA03F092AB0389
:100D10007093AD036093AC035093AF034093AE0365
:100D20003093B1032093B0039093B3038093B20345
:100D30001092B5031092B40310929503109294038D
:100D400010929703109296031092990310929803B1
:100D500061E070E080E090E0B0D5009789F090937A
:100D60009503809394031092970310929603209119
:100D7000980330919903232BD9F4FC01108218C0F9
:100D80008091940390919503009709F0FED41092FE
:100D90009503109294031092990310929803109265
:100DA000970310929603FF90EF90DF90CF900895F5
:100DB00010929903109298036AE672E0FF90EF9008
:100DC000DF90CF906BC6CF93DF93CDB7DEB7289778
:100DD0000FB6F894DEBF0FBECDBF789484B58260A5
:100DE00084BD84B5816084BD85B5826085BD85B5CF
:100DF000816085BD80916E00816080936E0010924D
:100E000081008091810082608093810080918100C7
:100E10008160809381008091800081608093800058
:100E20008091B10084608093B1008091B0008160B6
:100E30008093B000809191008260809391008091B6
:100E400091008160809391008091900081608093F7
:100E500090008091A10082608093A1008091A10008
:100E600081608093A1008091A00081608093A000A8
:100E70008091210182608093210180912101816014
:100E800080932101809120018160809320018091D5
:100E90007A00846080937A0080917A0082608093E7
:100EA0007A0080917A00816080937A0080917A0044
:100EB000806880937A001092C100E091EB02F0917B
:100EC000EC0282E08083E091E702F091E802108278
:100ED000E091E902F091EA0280E180831092F3024E
:100EE000E091EF02F091F00286E08083E091ED0264
:100EF000F091EE02808180618083E091ED02F091BB
:100F0000EE02808188608083E091ED02F091EE0234
:100F1000808180688083E091ED02F091EE02808113
:100F20008F7D8083C9DC60938302709384028093F9
:100F300085029093860260E08091B2039CDB61E0C1
:100F40008091B00398DB61E08091AC0394DB61E0B9
:100F50008091AE0390DB60E070E08091AC03C7DB72
:100F60006FEF70E08091AE03C2DB6FEF70E08091B5
:100F7000B003BDDB68EE73E080E090E0C2DC6FEFB1
:100F800070E08091AC03B3DB60E070E08091AE0371
:100F9000AEDB60E070E08091B003A9DB68EE73E047
:100FA00080E090E0AEDC2FB7F89480917B029091C6
:100FB0007C02A0917D02B0917E022FBF8093A0039E
:100FC0009093A103A093A203B093A30360E088E1F0
:100FD00052DB61E088E120DB60E086E14CDB61E030
:100FE00086E11ADB61E087E246DB60E089E243DB11
:100FF000E12CF12C00E010E096E0E916F10464F435
:10100000F801E45CFD4F60E0808135DB8FEFE81A8A
:10101000F80A0E5F1F4FF0CF01E712E04AE0C42E3E
:1010200042E0D42E7601D8011D921D928D01F70168
:101030008081F2E0EF0EF11C61E01DDB82E00D37F4
:10104000180789F70AE212E0D8018C910E5F1F4F52
:1010500060E011DBB2E006331B07B1F760E080E22D
:101060000ADB60E08EE107DB60E08CE104DB61E03D
:1010700087E001DB60E084E3FEDA60E082E3FBDA34
:1010800060E080E3F8DA60E08EE2F5DA6FEF70E0BE
:1010900087E02DDB6CE271E080E090E032DCF6016D
:1010A0008081F2E0CF0ED11C6FEF70E020DB6CE2AC
:1010B00071E080E090E025DC06E1C01602E0D00699
:1010C00071F760E070E087E012DB53DC96E0C92E38
:1010D000D12C22E0222E312C812C37E8932E33E9BB
:1010E000A32E33E0B32E08E4602E02E0702E8FECC6
:1010F000482E82E0582ED3018C91B2E06B0E711C09
:10110000BCDBF201819391932F01B9DCF4E56F16FA
:10111000F2E07F0681F71092CB021092CC0210927F
:10112000CD021092CE0280E090E0A9DC8091B20363
:101130004BDA3C019093B5038093B4038130910561
:1011400091F480919A0390919B03892B09F043C0FD
:1011500070929B0360929A038EE090E090939F03BD
:1011600080939E0376C0892BB1F580919A0390916C
:101170009B03019781F530929B0320929A03109272
:101180009F0310929E0310929D0310929C038091E6
:10119000A0039091A103A091A203B091A303809317
:1011A000A4039093A503A093A603B093A7032FB71E
:1011B000F89480917B0290917C02A0917D02B09185
:1011C0007E022FBF8093A0039093A103A093A2035C
:1011D000B093A3033AC04091A8035091A903609132
:1011E000AA037091AB032FB7F89480917B02909182
:1011F0007C02A0917D02B0917E022FBF8093A40358
:101200009093A503A093A603B093A7034090A003D7
:101210005090A1036090A2037090A30384199509D4
:10122000A609B709481759076A077B0770F4809128
:101230009A0390919B03029741F410929B031092A2
:101240009A03D0929F03C0929E036090B403709063
:10125000B50380919A0390919B03009751F460919C
:101260009C0370919D038091AE0341DA6FEF70E0B3
:1012700013C08130910519F46FEF70E006C002973A
:1012800071F460919C0370919D038091AE032FDAFD
:1012900060919C0370919D038091AC0328DA2091AA
:1012A0009E0330919F0380919C0390919D03820F38
:1012B000931F90939D0380939C03AC01415051096F
:1012C0004E3F5105A8F031952195310930939F0388
:1012D00020939E038F3F910519F014F08FEF90E05B
:1012E00097FF02C080E090E090939D0380939C0361
:1012F00060919C0370919D038091B003F8D9C30164
:10130000BEDB1092C7021092C8021092C90210925E
:10131000CA0280E090E0B3DB89E256D99093C6021E
:101320008093C502ACDB8091C5029091C602019703
:1013300061F461E087E270D9BCE36B2EB2E07B2EF2
:1013400019EB412E12E0512E02C060E0F3CFD30121
:101350008C91B2E06B0E711C37D9F201819391939D
:101360002F018DDBF8E46F16F2E07F0681F788E34A
:1013700084DA9093B6028093B50281DB89E37DDA4B
:101380009093B8028093B7027ADBF6E36F2EF2E017
:101390007F2EAFEA4A2EA2E05A2ED3018C91B2E002
:1013A0006B0E711C11D9F201819391932F0167DBB0
:1013B000FCE36F16F2E07F0681F773EA472E72E0D6
:1013C000572EEAE26E2EE2E07E2ED3018C91B2E03F
:1013D0006B0E711CF9D8F201819391932F014FDBB1
:1013E000F6E36F16F2E07F0681F786E346DA909324
:1013F000A00280939F0243DB87E33FDA9093A2022F
:101400008093A1023CDB5EE1652E52E0752E63E91C
:10141000462E62E0562ED3018C91B2E06B0E711C09
:10142000D3D8F201819391932F0129DBFAE26F1651
:10143000F2E07F0681F736E1632E32E0732E4BE84F
:10144000442E42E0542ED3018C91B2E06B0E711CFD
:10145000BBD8F201819391932F0111DBFEE16F164E
:10146000F2E07F0681F78EE308DA9093880280939A
:10147000870205DB8FE301DA90938A028093890269
:10148000FEDA6FEF70E087E032D916DA409083021F
:1014900050908402609085027090860264157505F4
:1014A0008605970548F408DA6093830270938402F6
:1014B00080938502909386024091C7025091C802A2
:1014C0006091C9027091CA0280910002909101025C
:1014D000A0910202B09103029A01AB01280F391FBB
:1014E0004A1F5B1F253F01E030074105510520F0F1
:1014F00024EF31E040E050E02093000230930102FD
:10150000409302025093030229833A834B835C8306
:10151000D3D94090830250908402609085027090ED
:1015200086027B018C01E418F50806091709C5013C
:10153000B40129813A814B815C8168D02E153F0529
:101540004007510780F515DA80918102909182025F
:101550000196863091052CF490938202809381024B
:1015600004C01092820210928102809181029091B7
:101570008202880F991FFC01ED55FD4F20813181BA
:101580002130310539F4FC01E65FFD4F6FEF70E06B
:101590008081ADD891D96093830270938402809347
:1015A0008502909386028BED92E00E94880167DAB3
:1015B00060917F0270918002072E000C880B990BBE
:1015C00097FF02C036DA02C04AE0F4D988E692E01A
:1015D000E0D980917F0290918002019690938002E1
:1015E00080937F028BED92E00E94B901892BD1F7A5
:1015F0008BED92E00E949701CC97D1F70E945602A2
:1016000072CD8091940390919503BFC0A1E21A2EF0
:10161000AA1BBB1BFD010DC0AA1FBB1FEE1FFF1F96
:10162000A217B307E407F50720F0A21BB30BE40BE6
:10163000F50B661F771F881F991F1A9469F760952D
:101640007095809590959B01AC01BD01CF010895E7
:10165000EE0FFF1F881F8BBF0790F691E02D1994A6
:10166000CF93DF938230910510F482E090E0E09117
:10167000B803F091B90320E030E0C0E0D0E030974B
:1016800011F14081518148175907C0F04817590797
:1016900061F482819381209719F09B838A832BC008
:1016A0009093B9038093B80326C02115310519F032
:1016B0004217530718F49A01BE01DF01EF010280BF
:1016C000F381E02DDCCF2115310509F1281B390B01
:1016D0002430310590F412968D919C9113976115E9
:1016E000710521F0FB019383828304C09093B903B9
:1016F0008093B803FD01329644C0FD01E20FF31F51
:1017000081939193225031092D933C933AC02091BB
:10171000B6033091B703232B41F420910602309198
:1017200007023093B7032093B6032091040230914F
:1017300005022115310541F42DB73EB7409108024D
:1017400050910902241B350BE091B603F091B703C9
:10175000E217F307A0F42E1B3F0B2817390778F088
:10176000AC014E5F5F4F2417350748F04E0F5F1FE7
:101770005093B7034093B6038193919302C0E0E086
:10178000F0E0CF01DF91CF9108950F931F93CF9396
:10179000DF93009709F48CC0FC0132971382128208
:1017A0000091B8031091B9030115110581F420814E
:1017B0003181820F931F2091B6033091B703281710
:1017C000390779F5F093B703E093B60371C0D801F8
:1017D00040E050E0AE17BF0750F412962D913C91B7
:1017E0001397AD012115310509F1D901F3CF9D0101
:1017F000DA013383228360817181860F971F8217FC
:10180000930769F4EC0128813981260F371F2E5F79
:101810003F4F318320838A819B8193838283452B31
:1018200029F4F093B903E093B80342C01396FC93F4
:10183000EE931297ED01499159919E01240F351FA6
:10184000E217F30771F480819181840F951F02964E
:1018500011969C938E938281938113969C938E9381
:101860001297E0E0F0E0D80112968D919C911397C9
:10187000009719F0F8018C01F6CF8D919C91980199
:101880002E5F3F4F820F931F2091B6033091B70315
:101890002817390769F4309729F41092B903109288
:1018A000B80302C0138212821093B7030093B603E9
:1018B000DF91CF911F910F9108956F927F928F9238
:1018C0009F92AF92BF92CF92DF92EF92FF920F93CF
:1018D0001F93CF93DF93EC01009781F4CB01DF914D
:1018E000CF911F910F91FF90EF90DF90CF90BF901D
:1018F000AF909F908F907F906F90B2CEFC01E60FDB
:10190000F71F9C0122503109E217F30708F4A8C021
:10191000D9010D911C91119706171707A8F00530F2
:10192000110508F49BC0C80104978617970708F4AF
:1019300095C002501109061B170B019311936D936B
:101940007C93CF0122DF8AC05B01A01AB10A4C014F
:10195000800E911EA091B803B091B90340E050E011
:10196000E12CF12C109709F44AC0A815B905D1F55E
:101970006D907C901197630182E0C80ED11CCA144F
:10198000DB0480F1A3014A195B096A0182E0C80EF9
:10199000D11C1296BC9012971396AC91B5E0CB1661
:1019A000D10440F0B282A38351834083D9016D9367
:1019B0007C930AC00E5F1F4FC301800F911FF90176
:1019C00091838083EB2DFA2FE114F10431F0D701DC
:1019D0001396FC93EE93129741C0F093B903E093F2
:1019E000B8033CC08D919C9111974817590708F492
:1019F000AC017D0112960D90BC91A02DB3CF8091CA
:101A0000B6039091B70388159905E1F44617570777
:101A1000C8F48091040290910502009741F48DB7BB
:101A20009EB74091080250910902841B950BE8175C
:101A3000F907B0F4F093B703E093B603F9017183AB
:101A400060830CC0CB010CDE7C01009749F0A8013B
:101A5000BE011BD0CE0199DEC70104C0CE0102C079
:101A600080E090E0DF91CF911F910F91FF90EF9078
:101A7000DF90CF90BF90AF909F908F907F906F90AE
:101A8000089581E090E0F89410C0FB01DC0102C0F1
:101A900001900D9241505040D8F70895FB01DC01B0
:101AA00001900D920020E1F7089511E0C7E2D1E026
:101AB00000E005C0802FFE01CBDD2196011DC8325C
:0C1AC000D10780E00807B1F7F894FFCFD1
:101ACC00DC0000000000BA038000040005000600E2
:101ADC0009000A000B003400320030002E002C00EC
:101AEC002A002800260024002200170019001B00E1
:101AFC001D001F00210020001E001C0035003300BB
:101B0C0031002F002D002B0040004100420043000B
:101B1C004400450000000000EF0159018801350226
:0C1B2C00B9019701AB012C000D0A00006C
:00000001FF
