:1000000027C1000055C1000053C1000051C10000CC
:100010004FC100004DC100004BC1000049C10000AC
:1000200047C1000045C1000043C1000041C10000BC
:100030003FC100003DC100003BC1000039C10000CC
:1000400037C1000035C1000033C1000031C10000DC
:100050002FC100002DC100002BC1000063C50000AE
:1000600027C10000CBC20000D1C1000021C10000A7
:100070001FC100001DC100001BC1000019C100000C
:1000800017C1000015C1000013C1000011C100001C
:100090000FC100000DC100000BC1000009C100002C
:1000A00007C1000005C1000003C1000001C100003C
:1000B000FFC00000FDC00000FBC00000F9C0000050
:1000C000F7C00000F5C00000F3C00000F1C0000060
:1000D000EFC00000EDC00000EBC00000E9C0000070
:1000E000E7C00000C302C602B502B902BF02FD02AA
:1000F000CA02CE02D402D802DC02E202E602EA021E
:10010000FD02F002F402F80276047B0480048A0403
:1001100094040D059E04A604AE04B804C204CC04E5
:10012000DB04E5040D05EF04F904030500002000DD
:100130002300260029002C002F00320000010000BF
:10014000030106010901050505050705080808085A
:10015000020202020A0A080804040404010101015F
:10016000010101010303030303030303040707075A
:100170000C0C0C0C0C0C0C0C0202020206060606FF
:10018000060606060B0B0B0B0B0B0B0B01021020CC
:1001900020080810204010204080020102010804BD
:1001A0000201010204081020408080402010080451
:1001B00002018004020180402010080402010804AA
:1001C00002010102040810204080010204081020EE
:1001D000408000002100240027002A002D0030006C
:1001E000330001010000040107010A0100002200A0
:1001F000250028002B002E003100340002010000F1
:10020000050108010B0100000A0B02090C0D0E0884
:1002100007030401000000000000000000000000CF
:1002200000000000000000000000000000000000CE
:10023000000012111000000000000000000000008B
:100240000000000000000000000000009606760C90
:1002500011241FBECFEFD1E2DEBFCDBF00E00CBF47
:1002600012E0A0E0B2E0E8E1FEE100E00BBF02C076
:1002700007900D92AC36B107D9F723E0ACE6B2E0B7
:1002800001C01D92AA3BB207E1F711E0C7E2D1E03D
:1002900000E006C021970109802FFE010E94C80CD2
:1002A000C632D10780E00807A9F72DD60C94FB0EC3
:1002B000A7CECF92DF92EF92FF920F931F93CF932F
:1002C000DF936C017A018B01C0E0D0E0CE15DF0531
:1002D00089F0D8016D918D01D601ED91FC910190CD
:1002E000F081E02DC6011995892B11F47E0102C021
:1002F0002196ECCFC701DF91CF911F910F91FF9015
:10030000EF90DF90CF90089580E792E0DDD021E07C
:10031000892B09F420E0822F08950E94E70E0097B0
:1003200061F0FC0101900020E9F73197AF01481B13
:10033000590BBC0180E792E0BCCF80E090E00895CB
:100340008F929F92AF92BF920F931F93CF93DF93A1
:10035000CDB7DEB7A1970FB6F894DEBF0FBECDBF05
:1003600019A2423008F44AE08E010F5D1F4F842E1F
:10037000912CA12CB12CA50194010E94970CE62F81
:10038000B901CA0101501109EA3014F4E05D01C05D
:10039000E95CD801EC93232B242B252B61F7C801B2
:1003A000BEDFA1960FB6F894DEBF0FBECDBFDF91C2
:1003B000CF911F910F91BF90AF909F908F90089514
:1003C000CF92DF92EF92FF92CF93DF936B017C018C
:1003D000E0917002F09171020190F081E02D6DE2E8
:1003E00080E792E01995EC0166277727CB016C191D
:1003F0007D098E099F094AE0A3DF8C0F9D1FDF91C5
:10040000CF91FF90EF90DF90CF9008951F920F92C1
:100410000FB60F9211240BB60F922F933F934F9369
:100420005F936F937F938F939F93AF93BF93EF935C
:10043000FF9380E792E018D1FF91EF91BF91AF91C8
:100440009F918F917F916F915F914F913F912F91EC
:100450000F900BBE0F900FBE0F901F901895089530
:1004600080E090E00895FC01538D448D252F30E00D
:10047000842F90E0821B930B541710F0CF960895B1
:1004800001970895FC01918D828D981761F0828DFE
:10049000DF01A80FB11D5D968C91928D9F5F9F73B8
:1004A000928F90E008958FEF9FEF0895FC01918D5A
:1004B000828D981731F0828DE80FF11D858D90E0C7
:1004C00008958FEF9FEF0895FC01918D228D892F64
:1004D00090E0805C9F4F821B91098F73992708954C
:1004E00080E090E0892B19F00FDF811125C080E0BA
:1004F00090E0892B41F080E090E0892B21F00E9470
:10050000000081111CC080E090E0892B41F080E068
:1005100090E0892B21F00E940000811113C080E03F
:1005200090E0892BA1F080E090E0892B81F00E947F
:10053000000081110AC008950E940000D8CF0E94D7
:100540000000E1CF0E940000EACF0C940000089563
:1005500090E0FC013197E231F10508F04EC08827A8
:10056000EE58FF4F8F4F0C94C80C809180008F770E
:1005700003C0809180008F7D8093800008958091DA
:100580008000877FF9CF84B58F7702C084B58F7DD7
:1005900084BD08958091B0008F7703C08091B00032
:1005A0008F7D8093B0000895809190008F7707C071
:1005B000809190008F7D03C080919000877F809311
:1005C000900008958091A0008F7707C08091A000CF
:1005D0008F7D03C08091A000877F8093A000089545
:1005E000809120018F7707C0809120018F7D03C00B
:1005F00080912001877F8093200108951F920F92A0
:100600000FB60F9211240BB60F922F938F939F93D7
:10061000EF93FF93E0918002F09181028081E0915D
:100620008602F091870282FD12C09081809189023A
:100630008F5F8F7320918A02821751F0E0918902B7
:10064000F0E0E059FD4F958F8093890201C08081D1
:10065000FF91EF919F918F912F910F900BBE0F9073
:100660000FBE0F901F901895FC01848DDF01A80F1D
:10067000B11DA35ABF4F2C91848D90E001968F73CA
:100680009927848FA689B7892C93A089B1898C91E9
:1006900080648C93938D848D981306C00288F389AF
:1006A000E02D80818F7D80830895EF92FF920F93DC
:1006B0001F93CF93DF93EC0181E0888F9B8D8C8D0E
:1006C000981305C0E889F989808185FD23C0F62E3D
:1006D0000B8D10E00F5F1F4F0F731127E02E8C8DD5
:1006E000E8120BC00FB607FCFACFE889F9898081C0
:1006F00085FFF5CFCE01B8DFF2CF8B8DFE01E80F7D
:10070000F11DE35AFF4FF0820B8FEA89FB8980814C
:10071000806207C0EE89FF896083E889F98980815A
:100720008064808381E090E0DF91CF911F910F91F1
:10073000FF90EF900895CF93DF93EC01888D88238D
:10074000C1F0EA89FB89808185FD05C0A889B98946
:100750008C9186FD0EC00FB607FCF5CF808185FF1A
:10076000F2CFA889B9898C9185FFEDCFCE017CDFCE
:10077000E8CFDF91CF910895CF93DF93282F30E01A
:10078000F901EA5FFD4F8491F901E457FE4FD491DE
:10079000F901EA5BFE4FC491CC2389F08111D8DEC8
:1007A000EC2FF0E0EE0FFF1FE45DFE4FA591B4913A
:1007B000EC91ED2381E090E021F480E002C080E044
:1007C00090E0DF91CF9108951F93CF93DF93282F6F
:1007D00030E0F901EA5FFD4F8491F901E457FE4FE3
:1007E000D491F901EA5BFE4FC491CC23C1F0162FDE
:1007F0008111AEDEEC2FF0E0EE0FFF1FE451FE4F53
:10080000A591B4918FB7F894111105C09C91ED2F6B
:10081000E095E92302C0EC91ED2BEC938FBFDF91C3
:10082000CF911F910895CF93DF9390E0FC01E4579F
:10083000FE4F2491FC01EA5BFE4F8491882361F115
:1008400090E0880F991FFC01EE52FE4FC591D491A4
:10085000FC01E451FE4FA591B491611109C09FB70D
:10086000F8948881209582238883EC912E230BC0F5
:10087000623061F49FB7F8943881822F809583238A
:100880008883EC912E2B2C939FBF06C08FB7F894D2
:10089000E8812E2B28838FBFDF91CF9108951F937E
:1008A000CF93DF93182FEB0161E0BDDF209711F4A8
:1008B00060E004C0CF3FD10531F461E0812FDF91CA
:1008C000CF911F9181CFE12FF0E0EA5FFD4FE491DE
:1008D0004E2F50E0FA013197E231F10508F09DC04A
:1008E0008827EC57FF4F8F4F0C94C80C84B5806855
:1008F00084BDC7BD97C084B5806284BDC8BD92C0A9
:1009000080918000806880938000D0938900C0939C
:10091000880088C080918000806280938000D0939E
:100920008B00C0938A007EC0809180008860809395
:100930008000D0938D00C0938C0074C08091B00073
:1009400080688093B000C093B3006CC08091B00009
:1009500080628093B000C093B40064C08091900026
:10096000806880939000D0939900C09398005AC0FB
:1009700080919000806280939000D0939B00C09300
:100980009A0050C080919000886080939000D0932E
:100990009D00C0939C0046C08091A0008068809319
:1009A000A0008091A0008F7B8093A000D093A9002D
:1009B000C093A80037C08091A00080628093A000FF
:1009C000D093AB00C093AA002DC08091A000886096
:1009D0008093A000D093AD00C093AC0023C0809161
:1009E0002001806880932001D0932901C0932801C1
:1009F00019C080912001806280932001D0932B0147
:100A0000C0932A010FC0809120018860809320014B
:100A1000D0932D01C0932C0105C0C038D1050CF036
:100A20004CCF46CFDF91CF911F910895863308F0C8
:100A3000865390917B00282F2870977F922B90935C
:100A40007B008770806480937C0080917A00806452
:100A500080937A0080917A0086FDFCCF80917800A7
:100A60002091790090E0922B08953FB7F8948091FF
:100A7000B2039091B303A091B403B091B50326B52E
:100A8000A89B05C02F3F19F00196A11DB11D3FBFC6
:100A9000BA2FA92F982F8827820F911DA11DB11D54
:100AA000BC01CD0142E0660F771F881F991F4A9550
:100AB000D1F708958F929F92AF92BF92CF92DF921B
:100AC000EF92FF926B017C01D0DF4B015C01C114FE
:100AD000D104E104F104E9F0C8DFDC01CB0188199D
:100AE0009909AA09BB09883E9340A105B10578F38D
:100AF00021E0C21AD108E108F10888EE880E83E0EF
:100B0000981EA11CB11CC114D104E104F10421F709
:100B1000DECFFF90EF90DF90CF90BF90AF909F908F
:100B20008F9008951F920F920FB60F9211242F935A
:100B30003F938F939F93AF93BF9380916C0290915B
:100B40006D02A0916E02B0916F023091B10323E06B
:100B5000230F2D3720F40196A11DB11D05C026E8F5
:100B6000230F0296A11DB11D2093B10380936C0247
:100B700090936D02A0936E02B0936F028091B203C6
:100B80009091B303A091B403B091B5030196A11D58
:100B9000B11D8093B2039093B303A093B403B093B9
:100BA000B503BF91AF919F918F913F912F910F907E
:100BB0000FBE0F901F901895CF93C82F61E033DEC2
:100BC00060E08C2FCF9100CECF93C82F60E02BDE5A
:100BD00061E08C2FCF91F8CD0F931F93CF93DF93CC
:100BE00088E190E0F1DF86E190E0EEDF83EC90E0D9
:100BF0000197F1F788E1C0DD0197E1F38FE090E024
:100C00000197F1F788E1B8DD892BE1F308E010E006
:100C1000D1E0C0E088E1B0DD0197E1F386E1ACDD31
:100C2000019709F4CD2B88E1A7DD892BE1F3DD0FD6
:100C30000150110979F788E19FDD0197E1F388E11F
:100C40009BDD892BE1F388E197DD0197E1F388E1F2
:100C500093DD892BE1F388E190E0AEDF8C2FDF910B
:100C6000CF911F910F910895CF93DF93CAE0D2E007
:100C70008881229660E070E012DE82E0C631D807FB
:100C8000B9F7DF91CF910895BC01990F880B990BAB
:100C900097FF02C095DB02C04AE052DB89E692E092
:100CA0003ECBCF92DF92EF92FF920F931F93E82FEC
:100CB000F92F05C0015011092109310961F1908115
:100CC00096239417B9F305C0015011092109310980
:100CD00011F1908196239413F7CFC12CD12CE12CE4
:100CE000F12C0AC08FEFC81AD80AE80AF80A0C15C6
:100CF0001D052E053F0579F080818623841791F329
:100D00006C2D7D2D8E2D9F2D1F910F91FF90EF90BB
:100D1000DF90CF90089560E070E080E090E01F9158
:100D20000F91FF90EF90DF90CF900895CF92DF92D8
:100D3000EF92FF92109273021092720288EE93E08B
:100D4000A0E0B0E08093740290937502A0937602C5
:100D5000B093770288E592E09093710280937002DD
:100D600085EC90E090937D0280937C0284EC90E08F
:100D700090937F0280937E0280EC90E090938102BA
:100D80008093800281EC90E09093830280938202B2
:100D900082EC90E0909385028093840286EC90E050
:100DA00090938702809386021092890210928A02A1
:100DB00010928B0210928C0210929603109295035F
:100DC0001092980310929703E6E0F0E0F0939A03F4
:100DD000E093990388EBC82E8BE0D82EE12CF12C00
:100DE000C092A303D092A403E092A503F092A603BD
:100DF0006CE070E07093A8036093A7034DE050E0AF
:100E00005093AA034093A9032AE130E03093AC0346
:100E10002093AB0383E090E09093AE038093AD0307
:100E20001092B0031092AF031092140310921303A8
:100E30001092160310921503F0931803E093170312
:100E4000C0922103D0922203E0922303F092240364
:100E50007093260360932503509328034093270340
:100E600030932A032093290390932C0380932B0320
:100E700010922E0310922D0310920E0310920D0368
:100E80001092100310920F0310921203109211038C
:100E900061E070E080E090E0B6D6009789F0909332
:100EA0000E0380930D031092100310920F032091F4
:100EB000110330911203232BD9F4FC01108218C0C6
:100EC00080910D0390910E03009709F004D61092C3
:100ED0000E0310920D031092120310921103109240
:100EE000100310920F03FF90EF90DF90CF900895C2
:100EF000109212031092110368E672E0FF90EF90D7
:100F0000DF90CF9071C7CF93DF93CDB7DEB728972F
:100F10000FB6F894DEBF0FBECDBF789484B5826063
:100F200084BD84B5816084BD85B5826085BD85B58D
:100F3000816085BD80916E00816080936E0010920B
:100F40008100809181008260809381008091810086
:100F50008160809381008091800081608093800017
:100F60008091B10084608093B1008091B000816075
:100F70008093B00080919100826080939100809175
:100F800091008160809391008091900081608093B6
:100F900090008091A10082608093A1008091A100C7
:100FA00081608093A1008091A00081608093A00067
:100FB00080912101826080932101809121018160D3
:100FC0008093210180912001816080932001809194
:100FD0007A00846080937A0080917A0082608093A6
:100FE0007A0080917A00816080937A0080917A0003
:100FF000806880937A001092C100E0918002F091A5
:10100000810282E08083E0917C02F0917D02108277
:10101000E0917E02F0917F0280E18083109288024D
:10102000E0918402F091850286E08083E091820263
:10103000F0918302808180618083E0918202F0914F
:101040008302808188608083E0918202F091830234
:10105000808180688083E0918202F09183028081A8
:101060008F7D808302DD60933D0370933E03809308
:101070003F039093400360E080912903D4DB61E05B
:1010800080912B03D0DB61E080912503CCDB61E014
:1010900080912703C8DB109214031092130360E0C1
:1010A00070E080912503FBDB6FEF70E080912703F8
:1010B000F6DB6FEF70E080912B03F1DB68EE73E0FD
:1010C00080E090E0F7DC6FEF70E080912503E7DBD4
:1010D00060E070E080912703E2DB60E070E08091E7
:1010E0002B03DDDB68EE73E080E090E0E3DC2FB7FC
:1010F000F89480916C0290916D02A0916E02B09173
:101100006F022FBF8093190390931A03A0931B03C0
:10111000B0931C0388E190E057DD86E190E054DD58
:1011200061E087E280DB60E089E27DDBE12CF12C8D
:1011300000E010E096E0E916F10464F4F801E45CE4
:10114000FD4F60E080816FDB8FEFE81AF80A0E5FD9
:101150001F4FF0CF0FE213E04AE0C42E42E0D42E3E
:101160007601F801119211928F01F7018081F2E06E
:10117000EF0EF11C61E057DB83E00B33180789F7B2
:101180000AE212E0F80180810E5F1F4F60E04BDB46
:10119000F2E006331F07B1F760E080E244DB60E075
:1011A0008EE141DB60E08CE13EDB61E087E03BDB30
:1011B00060E084E338DB60E082E335DB60E080E31D
:1011C00032DB60E08EE22FDB6FEF70E087E067DB01
:1011D0006CE271E080E090E06DDCF6018081F2E08D
:1011E000CF0ED11C6FEF70E05ADB6CE271E080E053
:1011F00090E060DC86E1C81682E0D80671F760E016
:1012000070E087E04CDB30DD93E0292E312CCC24DC
:10121000CA9423E0D22EE12CF12C412C37E8532E36
:1012200033E9632E33E0732E08E412E089E8A82E38
:1012300083E0B82EF80180810E5F1F4FF7DBF501C8
:10124000819391935F0120DDF2E004351F0791F750
:1012500061E088E0E8DA60E088E0B6DAC101019791
:10126000F1F761E088E0B0DA8FE090E00197F1F704
:1012700060E088E0A9DA60E088E0D5DAE4E9F1E04E
:101280006491EEE4F1E08491E82FF0E0EE0FFF1FAF
:10129000E45DFE4F8591949100E412E42FE030E08C
:1012A000462FFFDC611571058105910549F0DC01D0
:1012B000CB010196A11DB11DBC01CD019F7003C0E2
:1012C00060E070E0CB012AE330E040E050E013D36F
:1012D00020938503309386034093870350938803BC
:1012E000C901D2DC8091290347DA8C0190932E0347
:1012F00080932D038130910591F480911303909197
:101300001403892B09F046C01093140300931303B0
:101310008EE090E090931803809317037CC0892B94
:10132000C9F58091130390911403019799F5B2E0E8
:101330008B2E912C90921403809213031092180319
:10134000109217031092160310921503809119033F
:1013500090911A03A0911B03B0911C0380931D036D
:1013600090931E03A0931F03B09320032FB7F8940C
:1013700080916C0290916D02A0916E02B0916F020B
:101380002FBF8093190390931A03A0931B03B0936C
:101390001C033DC04091210350912203609123031F
:1013A000709124032FB7F89480916C0290916D0294
:1013B000A0916E02B0916F022FBF80931D03909396
:1013C0001E03A0931F03B0932003009119031091F3
:1013D0001A0320911B0330911C03801B910BA20B5D
:1013E000B30B481759076A077B0788F480911303EA
:1013F00090911403029759F410921403109213035E
:10140000A6E0AA2EB12CB0921803A0921703009167
:101410002D0310912E0380911303909114030097D4
:1014200051F460911503709116038091270337DA08
:101430006FEF70E00CC08130910569F46FEF70E0E0
:10144000809127032CDA6091150370911603809127
:10145000250325DA0BC0029729F4609115037091DA
:101460001603EECF1092140310921303209117036A
:10147000309118038091150390911603820F931FEA
:101480009093160380931503AC01415051094E3FD0
:101490005105A8F031952195310930931803209317
:1014A00017038F3F910519F014F08FEF90E097FF2D
:1014B00002C080E090E09093160380931503609142
:1014C00015037091160380912B03E9D9C801DCDB69
:1014D00086E190E079DB88E190E076DB0BEA14E0CE
:1014E000C8010197F1F788E190E066DBC801019738
:1014F000F1F786E190E060DB83E290E00197F1F79D
:1015000088E190E061DB88E137D90197E1F3F8E009
:101510008F2E912C01E01BEE812F8170B82E86E179
:1015200090E010FF02C050DB01C046DB88E124D907
:10153000892BE1F388E120D90197E1F30B2516957A
:1015400091E0891A910841F786E190E0002311F0BB
:101550003BDB01C031DB88E10FD9892BE1F388E166
:101560000BD90197E1F386E190E02EDB83EC90E06C
:101570000197F1F788E100D90197E1F388E1FCD800
:10158000892BE1F386E1F8D8892BC1F388E190E05B
:1015900013DB22DB21DB20DB182F1EDB812F012E4A
:1015A000000C990BAA0BBB0B8093810390938203D1
:1015B000A0938303B0938403812F110F990B64DBF5
:1015C00089E2DAD89093800380937F035DDB80917A
:1015D0007F0390918003019751F461E087E2F4D892
:1015E0000CE312E0E3E7AE2EE3E0BE2E02C060E0C3
:1015F000F5CFF80180810E5F1F4FBED8F5018193B2
:1016000091935F0141DBF2E008341F0791F788E313
:101610000DDA9093700380936F0336DB89E306DA6B
:1016200090937203809371032FDB06E312E079E657
:10163000A72E73E0B72EF80180810E5F1F4F9CD854
:10164000F501819391935F011FDBF2E00C331F07DB
:1016500091F76DE5A62E63E0B62E0AE212E0F801DE
:1016600080810E5F1F4F88D8F501819391935F01B0
:101670000BDBF2E006331F0791F786E3D7D92FE79C
:1016800030E0DC018DD1A701960135D130935A03AA
:1016900020935903C901F8DA87E3C8D92FE730E06E
:1016A000DC017ED1A701960126D130935C03209303
:1016B0005B03C901E9DA0EE112E05DE4A52E53E017
:1016C000B52EF80180810E5F1F4F56D8F50181932A
:1016D00091935F01D9DAF2E00A321F0791F706E130
:1016E00012E045E4A42E43E0B42EF80180810E5FA1
:1016F0001F4F42D8F501819391935F01C5DAF2E063
:101700000E311F0791F78EE391D92FE730E0DC010E
:1017100047D1A7019601EFD03093420320934103B4
:10172000C901B2DA8FE382D92FE730E0DC0138D18A
:10173000A7019601E0D03093440320934303C901ED
:10174000A3DA6FEF70E087E0AAD88FD900913D034C
:1017500010913E0320913F033091400360177107C1
:101760008207930748F481D960933D0370933E0349
:1017700080933F03909340034091810350918203F3
:101780006091830370918403809100029091010223
:10179000A0910202B09103024A015B01880E991EDA
:1017A000AA1EBB1E85EF881681E09806A104B1042D
:1017B00030F034EF832E99249394A12CB12C809295
:1017C000000290920102A0920202B0920302C301B1
:1017D000B201A5019401ABD0C4012D833E834F8398
:1017E000588752DA2D813E81C9014EDA3ED9809068
:1017F0003D0390903E03A0903F03B0904003DC0176
:10180000CB0188199909AA09BB092D813E814F8115
:101810005885281739074A075B07A0F525DA809114
:101820003B0390913C030196863091052CF49093F4
:101830003C0380933B0304C010923C0310923B0393
:1018400000913B0310913C03C801880F991FFC01D4
:10185000E35AFC4F208131812130310539F4FC01FC
:10186000E65FFD4F6FEF70E0808119D8C8010CDA98
:10187000FCD860933D0370933E0380933F039093A5
:10188000400303C08FEF9FEFFFD980E792E00E94F3
:101890003302FAD96091390370913A03072E000C94
:1018A000880B990B97FF03C00E94E00103C04AE038
:1018B0000E94A00186E692E00E948F018091390388
:1018C00090913A03019690933A038093390380E70D
:1018D00092E00E946402892BD1F780E792E00E9497
:1018E0004202CC97D1F70E9470029ECC80910D03EA
:1018F00090910E03F0C0052E97FB16F400940FD0C4
:1019000057FD05D014D007FC02D046F408C050950E
:101910004095309521953F4F4F4F5F4F08959095DB
:101920008095709561957F4F8F4F9F4F0895A1E2ED
:101930001A2EAA1BBB1BFD010DC0AA1FBB1FEE1F49
:10194000FF1FA217B307E407F50720F0A21BB30B94
:10195000E40BF50B661F771F881F991F1A9469F710
:1019600060957095809590959B01AC01BD01CF016C
:101970000895A29FB001B39FC001A39F700D811D68
:101980001124911DB29F700D811D1124911D089588
:10199000EE0FFF1F881F8BBF0790F691E02D199463
:1019A000E8DFB7FF0895821B930B0895CF93DF9371
:1019B0008230910510F482E090E0E091B803F0915C
:1019C000B90320E030E0C0E0D0E0309711F1408171
:1019D000518148175907C0F04817590761F48281AF
:1019E0009381209719F09B838A832BC09093B9032E
:1019F0008093B80326C02115310519F0421753070B
:101A000018F49A01BE01DF01EF010280F381E02D9D
:101A1000DCCF2115310509F1281B390B24303105A4
:101A200090F412968D919C9113976115710521F098
:101A3000FB019383828304C09093B9038093B8031E
:101A4000FD01329644C0FD01E20FF31F8193919393
:101A5000225031092D933C933AC02091B603309126
:101A6000B703232B41F420910602309107023093F3
:101A7000B7032093B603209104023091050221158B
:101A8000310541F42DB73EB740910802509109024B
:101A9000241B350BE091B603F091B703E217F3076F
:101AA000A0F42E1B3F0B2817390778F0AC014E5FCE
:101AB0005F4F2417350748F04E0F5F1F5093B70351
:101AC0004093B6038193919302C0E0E0F0E0CF0130
:101AD000DF91CF9108950F931F93CF93DF930097DA
:101AE00009F48CC0FC013297138212820091B80372
:101AF0001091B9030115110581F420813181820F04
:101B0000931F2091B6033091B7032817390779F551
:101B1000F093B703E093B60371C0D80140E050E002
:101B2000AE17BF0750F412962D913C911397AD015B
:101B30002115310509F1D901F3CF9D01DA01338374
:101B4000228360817181860F971F8217930769F442
:101B5000EC0128813981260F371F2E5F3F4F3183DB
:101B600020838A819B8193838283452B29F4F09380
:101B7000B903E093B80342C01396FC93EE93129717
:101B8000ED01499159919E01240F351FE217F3078A
:101B900071F480819181840F951F029611969C9318
:101BA0008E938281938113969C938E931297E0E09B
:101BB000F0E0D80112968D919C911397009719F03F
:101BC000F8018C01F6CF8D919C9198012E5F3F4FCB
:101BD000820F931F2091B6033091B703281739075E
:101BE00069F4309729F41092B9031092B80302C037
:101BF000138212821093B7030093B603DF91CF9143
:101C00001F910F9108956F927F928F929F92AF9242
:101C1000BF92CF92DF92EF92FF920F931F93CF93D9
:101C2000DF93EC01009781F4CB01DF91CF911F91FD
:101C30000F91FF90EF90DF90CF90BF90AF909F906B
:101C40008F907F906F90B2CEFC01E60FF71F9C0142
:101C500022503109E217F30708F4A8C0D9010D9109
:101C60001C91119706171707A8F00530110508F405
:101C70009BC0C80104978617970708F495C00250C7
:101C80001109061B170B019311936D937C93CF01E0
:101C900022DF8AC05B01A01AB10A4C01800E911E9E
:101CA000A091B803B091B90340E050E0E12CF12CD1
:101CB000109709F44AC0A815B905D1F56D907C902C
:101CC0001197630182E0C80ED11CCA14DB0480F1B5
:101CD000A3014A195B096A0182E0C80ED11C129661
:101CE000BC9012971396AC91B5E0CB16D10440F09E
:101CF000B282A38351834083D9016D937C930AC040
:101D00000E5F1F4FC301800F911FF90191838083E4
:101D1000EB2DFA2FE114F10431F0D7011396FC9367
:101D2000EE93129741C0F093B903E093B8033CC01F
:101D30008D919C9111974817590708F4AC017D01CA
:101D400012960D90BC91A02DB3CF8091B6039091C7
:101D5000B70388159905E1F446175707C8F4809131
:101D6000040290910502009741F48DB79EB740910F
:101D7000080250910902841B950BE817F907B0F48B
:101D8000F093B703E093B603F901718360830CC04D
:101D9000CB010CDE7C01009749F0A801BE011BD0ED
:101DA000CE0199DEC70104C0CE0102C080E090E000
:101DB000DF91CF911F910F91FF90EF90DF90CF9027
:101DC000BF90AF909F908F907F906F90089581E02B
:101DD00090E0F89410C0FB01DC0102C001900D926C
:101DE00041505040D8F70895FB01DC0101900D925D
:101DF0000020E1F7089511E0C7E2D1E000E005C05E
:101E0000802FFE01C5DD2196011DC832D10780E07B
:081E10000807B1F7F894FFCFB9
:101E1800DC0000000000BA03800004000500060092
:101E280009000A000B003400320030002E002C009C
:101E38002A002800260024002200170019001B0091
:101E48001D001F00210020001E001C00350033006B
:101E580031002F002D002B004000410042004300BC
:101E680044004500000000005503590133029B035C
:0C1E78006402420256020D0A002C000019
:00000001FF
