:1000000027C1000055C1000053C1000051C10000CC
:100010004FC100004DC100004BC1000049C10000AC
:1000200047C1000045C1000043C1000041C10000BC
:100030003FC100003DC100003BC1000039C10000CC
:1000400037C1000035C1000033C1000031C10000DC
:100050002FC100002DC100002BC100007DC5000094
:1000600027C1000043C5000018C5000021C10000E1
:100070001FC100001DC100001BC1000019C100000C
:1000800017C1000015C1000013C1000011C100001C
:100090000FC100000DC100000BC1000009C100002C
:1000A00007C1000005C1000003C1000001C100003C
:1000B000FFC00000FDC00000FBC00000F9C0000050
:1000C000F7C00000F5C00000F3C00000F1C0000060
:1000D000EFC00000EDC00000EBC00000E9C0000070
:1000E000E7C00000A902AC029B029F02A502E30246
:1000F000B002B402BA02BE02C202C802CC02D002EE
:10010000E302D602DA02DE029D03A203A703B103D3
:10011000BB033404C503CD03D503DF03E903F303B5
:1001200002040C043404160420042A0400002100F4
:10013000240027002A002D003000330001010000B8
:10014000040107010A0100002200250028002B00FD
:100150002E003100340002010000050108010B01EE
:10016000000020002300260029002C002F00320070
:100170000001000003010601090105050505070549
:1001800008080808020202020A0A08080404040413
:10019000010101010101010103030303030303033F
:1001A000040707070C0C0C0C0C0C0C0C02020202CE
:1001B00006060606060606060B0B0B0B0B0B0B0BB7
:1001C0000102102020080810204010204080020169
:1001D000020108040201010204081020408080404E
:1001E000201008040201800402018040201008044D
:1001F00002010804020101020408102040800102EB
:1002000004081020408000000A0B02090C0D0E08A3
:1002100007030401000000000000000000000000CF
:1002200000000000000000000000000000000000CE
:10023000000012111000000000000000000000008B
:10024000000000000000000000000000F605010BA7
:1002500011241FBECFEFD1E2DEBFCDBF00E00CBF47
:1002600023E0ACE6B2E001C01D92AA3BB207E1F781
:1002700012E0A0E0B2E0ECECFAE100E00BBF02C05B
:1002800007900D92AC36B107D9F711E0C7E2D1E083
:1002900000E006C021970109802FFE010E94280B73
:1002A000C632D10780E00807A9F78DD50C94550D0B
:1002B000A7CECF92DF92EF92FF920F931F93CF932F
:1002C000DF936C017A018B01C0E0D0E0CE15DF0531
:1002D00089F0D8016D918D01D601ED91FC910190CD
:1002E000F081E02DC6011995892B11F47E0102C021
:1002F0002196ECCFC701DF91CF911F910F91FF9015
:10030000EF90DF90CF900895089580E090E00895F9
:10031000FC01538D448D252F30E0842F90E0821B0B
:10032000930B541710F0CF96089501970895FC0190
:10033000918D828D981761F0828DDF01A80FB11D1C
:100340005D968C91928D9F5F9F73928F90E0089540
:100350008FEF9FEF0895FC01918D828D981731F0FA
:10036000828DE80FF11D858D90E008958FEF9FEF4E
:100370000895FC01918D228D892F90E0805C9F4F24
:10038000821B91098F73992708958BED92E0F1DF1D
:1003900021E0892B09F420E0822F0895FC01848D4F
:1003A000DF01A80FB11DA35ABF4F2C91848D90E09F
:1003B00001968F739927848FA689B7892C93A0897A
:1003C000B1898C9180648C93938D848D981306C031
:1003D0000288F389E02D80818F7D80830895EF92DC
:1003E000FF920F931F93CF93DF93EC0181E0888FEF
:1003F0009B8D8C8D981305C0E889F989808185FDD6
:1004000023C0F62E0B8D10E00F5F1F4F0F731127C7
:10041000E02E8C8DE8120BC00FB607FCFACFE889EE
:10042000F989808185FFF5CFCE01B8DFF2CF8B8DC2
:10043000FE01E80FF11DE35AFF4FF0820B8FEA89AE
:10044000FB898081806207C0EE89FF896083E8892B
:10045000F98980818064808381E090E0DF91CF9191
:100460001F910F91FF90EF900895CF93DF93EC01D0
:10047000888D8823C1F0EA89FB89808185FD05C0CC
:10048000A889B9898C9186FD0EC00FB607FCF5CFFF
:10049000808185FFF2CFA889B9898C9185FFEDCF46
:1004A000CE017CDFE8CFDF91CF91089580E090E02E
:1004B000892B19F06ADF811125C080E090E0892B3B
:1004C00041F080E090E0892B21F00E940000811132
:1004D0001CC080E090E0892B41F080E090E0892B07
:1004E00021F00E940000811113C080E090E0892B70
:1004F000A1F080E090E0892B81F00E940000811142
:100500000AC008950E940000D8CF0E940000E1CFE9
:100510000E940000EACF0C940000089590E0FC01D6
:100520003197E231F10508F04EC08827EE58FF4FB1
:100530008F4F0C94280B809180008F7703C080919F
:1005400080008F7D80938000089580918000877F58
:10055000F9CF84B58F7702C084B58F7D84BD0895AF
:100560008091B0008F7703C08091B0008F7D809321
:10057000B0000895809190008F7707C0809190001F
:100580008F7D03C080919000877F809390000895B5
:100590008091A0008F7707C08091A0008F7D03C05D
:1005A0008091A000877F8093A00008958091200112
:1005B0008F7707C0809120018F7D03C0809120013B
:1005C000877F809320010895CF93DF93282F30E019
:1005D000F901EA5FFD4F8491F901E054FE4FD49197
:1005E000F901E658FE4FC491CC2389F0811196DFC2
:1005F000EC2FF0E0EE0FFF1FE05AFE4FA591B491F3
:10060000EC91ED2381E090E021F480E002C080E0F5
:1006100090E0DF91CF9108951F93CF93DF93282F20
:1006200030E0F901EA5FFD4F8491F901E054FE4F9B
:10063000D491F901E658FE4FC491CC23C1F0162F96
:1006400081116CDFEC2FF0E0EE0FFF1FEA5BFE4F35
:10065000A591B4918FB7F894111105C09C91ED2F1D
:10066000E095E92302C0EC91ED2BEC938FBFDF9175
:10067000CF911F910895CF93DF9390E0FC01E05458
:10068000FE4F2491FC01E658FE4F8491882361F1CE
:1006900090E0880F991FFC01E45DFE4FC591D49155
:1006A000FC01EA5BFE4FA591B491611109C09FB7AF
:1006B000F8948881209582238883EC912E230BC0A7
:1006C000623061F49FB7F8943881822F809583233C
:1006D0008883EC912E2B2C939FBF06C08FB7F89484
:1006E000E8812E2B28838FBFDF91CF9108951F9330
:1006F000CF93DF93182FEB0161E0BDDF209711F45A
:1007000060E004C0CF3FD10531F461E0812FDF917B
:10071000CF911F9181CFE12FF0E0EA5FFD4FE4918F
:100720004E2F50E0FA013197E231F10508F09CC0FC
:100730008827EC57FF4F8F4F8BC784B5806884BDE7
:10074000C7BD97C084B5806284BDC8BD92C080918A
:100750008000806880938000D0938900C0938800D7
:1007600088C080918000806280938000D0938B004D
:10077000C0938A007EC08091800088608093800052
:10078000D0938D00C0938C0074C08091B0008068BD
:100790008093B000C093B3006CC08091B0008062C1
:1007A0008093B000C093B40064C0809190008068D2
:1007B00080939000D0939900C09398005AC0809184
:1007C0009000806280939000D0939B00C0939A0029
:1007D00050C080919000886080939000D0939D00DD
:1007E000C0939C0046C08091A00080688093A000C8
:1007F0008091A0008F7B8093A000D093A900C0932C
:10080000A80037C08091A00080628093A000D093A0
:10081000AB00C093AA002DC08091A0008860809397
:10082000A000D093AD00C093AC0023C08091200104
:10083000806880932001D0932901C093280119C0BA
:1008400080912001806280932001D0932B01C0937E
:100850002A010FC080912001886080932001D093ED
:100860002D01C0932C0105C0C038D1050CF04DCF2F
:1008700047CFDF91CF911F910895863308F08653BB
:1008800090917B00282F2870977F922B90937B006C
:100890008770806480937C0080917A00806480936C
:1008A0007A0080917A0086FDFCCF809178002091BB
:1008B000790090E0922B08953FB7F89480916D02F3
:1008C00090916E02A0916F02B091700226B5A89B24
:1008D00005C02F3F19F00196A11DB11D3FBFBA2FD2
:1008E000A92F982F8827820F911DA11DB11DBC0132
:1008F000CD0142E0660F771F881F991F4A95D1F7F7
:1009000008958F929F92AF92BF92CF92DF92EF9213
:10091000FF926B017C01D0DF4B015C01C114D1045B
:10092000E104F104E9F0C8DFDC01CB018819990981
:10093000AA09BB09883E9340A105B10578F321E0DF
:10094000C21AD108E108F10888EE880E83E0981EEB
:10095000A11CB11CC114D104E104F10421F7DECFC4
:10096000FF90EF90DF90CF90BF90AF909F908F90CF
:100970000895CF93DF93CAE0D2E08881229660E0A9
:1009800070E0B5DE82E0C631D807B9F7DF91CF91CC
:100990000895009761F0FC0101900020E9F731977C
:1009A000AF01481B590BBC018BED92E082CC80E07B
:1009B00090E008958F929F92AF92BF920F931F93F2
:1009C000CF93DF93CDB7DEB7A1970FB6F894DEBF14
:1009D0000FBECDBF19A2423008F44AE08E010F5D70
:1009E0001F4F842E912CA12CB12CA50194010ED661
:1009F000E62FB901CA0101501109EA3014F4E05D93
:100A000001C0E95CD801EC93232B242B252B69F73B
:100A1000C801BFDFA1960FB6F894DEBF0FBECDBFF1
:100A2000DF91CF911F910F91BF90AF909F908F90CA
:100A30000895CF92DF92EF92FF92CF93DF936B01F5
:100A40007C01E091DB02F091DC020190F081E02D6D
:100A50006DE28BED92E01995EC0166277727CB01CB
:100A60006C197D098E099F094AE0A4DF8C0F9D1F38
:100A7000DF91CF91FF90EF90DF90CF900895BC0170
:100A8000990F880B990B97FF02C0D3DF02C04AE091
:100A900091DF86E692E07DCFF4D71F920F920FB6DA
:100AA0000F9211240BB60F922F933F934F935F93A6
:100AB0006F937F938F939F93AF93BF93EF93FF9326
:100AC0008BED92E06BDCFF91EF91BF91AF919F9125
:100AD0008F917F916F915F914F913F912F910F90E7
:100AE0000BBE0F900FBE0F901F9018951F920F9284
:100AF0000FB60F9211240BB60F922F938F939F93E3
:100B0000EF93FF93E091EB02F091EC028081E09192
:100B1000F102F091F20282FD12C090818091F40204
:100B20008F5F8F732091F502821751F0E091F402EC
:100B3000F0E0E552FD4F958F8093F40201C0808173
:100B4000FF91EF919F918F912F910F900BBE0F907E
:100B50000FBE0F901F9018951F920F920FB60F9215
:100B600011242F933F938F939F93AF93BF938091C3
:100B70007B0290917C02A0917D02B0917E02309127
:100B80006C0223E0230F2D3720F40196A11DB11D27
:100B900005C026E8230F0296A11DB11D20936C020B
:100BA00080937B0290937C02A0937D02B0937E029F
:100BB00080916D0290916E02A0916F02B0917002CF
:100BC0000196A11DB11D80936D0290936E02A093BA
:100BD0006F02B0937002BF91AF919F918F913F913F
:100BE0002F910F900FBE0F901F901895CF92DF920C
:100BF000EF92FF921092DE021092DD0288EE93E0F7
:100C0000A0E0B0E08093DF029093E002A093E102C5
:100C1000B093E20288E592E09093DC028093DB02DD
:100C200085EC90E09093E8028093E70284EC90E0FA
:100C30009093EA028093E90280EC90E09093EC02BA
:100C40008093EB0281EC90E09093EE028093ED02B2
:100C500082EC90E09093F0028093EF0286EC90E0BB
:100C60009093F2028093F1021092F4021092F50236
:100C70001092F6021092F702109279031092780304
:100C800010927B0310927A03E6E0F0E0F0937D038C
:100C9000E0937C0388EBC82E8BE0D82EE12CF12C5E
:100CA000C0928603D0928703E0928803F092890372
:100CB00064E070E070938B0360938A0342E050E03D
:100CC00050938D0340938C0323E030E030938F03E7
:100CD00020938E0385E090E090939103809390039E
:100CE000109293031092920310929B0310929A0316
:100CF00010929D0310929C03F0939F03E0939E0338
:100D0000C092A803D092A903E092AA03F092AB0389
:100D10007093AD036093AC035093AF034093AE0365
:100D20003093B1032093B0039093B3038093B20345
:100D30001092B5031092B40310929503109294038D
:100D400010929703109296031092990310929803B1
:100D500061E070E080E090E0B0D5009789F090937A
:100D60009503809394031092970310929603209119
:100D7000980330919903232BD9F4FC01108218C0F9
:100D80008091940390919503009709F0FED41092FE
:100D90009503109294031092990310929803109265
:100DA000970310929603FF90EF90DF90CF900895F5
:100DB00010929903109298036AE672E0FF90EF9008
:100DC000DF90CF906BC6CF93DF93CDB7DEB7289778
:100DD0000FB6F894DEBF0FBECDBF789484B58260A5
:100DE00084BD84B5816084BD85B5826085BD85B5CF
:100DF000816085BD80916E00816080936E0010924D
:100E000081008091810082608093810080918100C7
:100E10008160809381008091800081608093800058
:100E20008091B10084608093B1008091B0008160B6
:100E30008093B000809191008260809391008091B6
:100E400091008160809391008091900081608093F7
:100E500090008091A10082608093A1008091A10008
:100E600081608093A1008091A00081608093A000A8
:100E70008091210182608093210180912101816014
:100E800080932101809120018160809320018091D5
:100E90007A00846080937A0080917A0082608093E7
:100EA0007A0080917A00816080937A0080917A0044
:100EB000806880937A001092C100E091EB02F0917B
:100EC000EC0282E08083E091E702F091E802108278
:100ED000E091E902F091EA0280E180831092F3024E
:100EE000E091EF02F091F00286E08083E091ED0264
:100EF000F091EE02808180618083E091ED02F091BB
:100F0000EE02808188608083E091ED02F091EE0234
:100F1000808180688083E091ED02F091EE02808113
:100F20008F7D8083C9DC60938302709384028093F9
:100F300085029093860260E08091B2039CDB61E0C1
:100F40008091B00398DB61E08091AC0394DB61E0B9
:100F50008091AE0390DB60E070E08091AC03C7DB72
:100F60006FEF70E08091AE03C2DB6FEF70E08091B5
:100F7000B003BDDB68EE73E080E090E0C2DC6FEFB1
:100F800070E08091AC03B3DB60E070E08091AE0371
:100F9000AEDB60E070E08091B003A9DB68EE73E047
:100FA00080E090E0AEDC2FB7F89480917B029091C6
:100FB0007C02A0917D02B0917E022FBF8093A0039E
:100FC0009093A103A093A203B093A30360E088E1F0
:100FD00052DB61E088E120DB60E086E14CDB61E030
:100FE00086E11ADB61E087E246DB60E089E243DB11
:100FF000E12CF12C00E010E096E0E916F10464F435
:10100000F801E45CFD4F60E0808135DB8FEFE81A8A
:10101000F80A0E5F1F4FF0CF01E712E04AE0C42E3E
:1010200042E0D42E7601D8011D921D928D01F70168
:101030008081F2E0EF0EF11C61E01DDB82E00D37F4
:10104000180789F70AE212E0D8018C910E5F1F4F52
:1010500060E011DBB2E006331B07B1F760E080E22D
:101060000ADB60E08EE107DB60E08CE104DB61E03D
:1010700087E001DB60E084E3FEDA60E082E3FBDA34
:1010800060E080E3F8DA60E08EE2F5DA6FEF70E0BE
:1010900087E02DDB6CE271E080E090E032DCF6016D
:1010A0008081F2E0CF0ED11C6FEF70E020DB6CE2AC
:1010B00071E080E090E025DC06E1C01602E0D00699
:1010C00071F760E070E087E012DB53DC96E0C92E38
:1010D000D12C22E0222E312C812C37E8932E33E9BB
:1010E000A32E33E0B32E08E4602E02E0702E8FECC6
:1010F000482E82E0582ED3018C91B2E06B0E711C09
:10110000BCDBF201819391932F01B9DCF4E56F16FA
:10111000F2E07F0681F71092CB021092CC0210927F
:10112000CD021092CE0280E090E0A9DC8091B20363
:101130004BDA3C019093B5038093B4038130910561
:1011400091F480919A0390919B03892B09F043C0FD
:1011500070929B0360929A038EE090E090939F03BD
:1011600080939E0376C0892BB1F580919A0390916C
:101170009B03019781F530929B0320929A03109272
:101180009F0310929E0310929D0310929C038091E6
:10119000A0039091A103A091A203B091A303809317
:1011A000A4039093A503A093A603B093A7032FB71E
:1011B000F89480917B0290917C02A0917D02B09185
:1011C0007E022FBF8093A0039093A103A093A2035C
:1011D000B093A3033AC04091A8035091A903609132
:1011E000AA037091AB032FB7F89480917B02909182
:1011F0007C02A0917D02B0917E022FBF8093A40358
:101200009093A503A093A603B093A7034090A003D7
:101210005090A1036090A2037090A30384199509D4
:10122000A609B709481759076A077B0770F4809128
:101230009A0390919B03029741F410929B031092A2
:101240009A03D0929F03C0929E036090B403709063
:10125000B50380919A0390919B03009751F460919C
:101260009C0370919D038091AE0341DA6FEF70E0B3
:1012700013C08130910519F46FEF70E006C002973A
:1012800071F460919C0370919D038091AE032FDAFD
:1012900060919C0370919D038091AC0328DA2091AA
:1012A0009E0330919F0380919C0390919D03820F38
:1012B000931F90939D0380939C03AC01415051096F
:1012C0004E3F5105A8F031952195310930939F0388
:1012D00020939E038F3F910519F014F08FEF90E05B
:1012E00097FF02C080E090E090939D0380939C0361
:1012F00060919C0370919D038091B003F8D9C30164
:10130000BEDB1092C7021092C8021092C90210925E
:10131000CA0280E090E0B3DB89E256D99093C6021E
:101320008093C502ACDB8091C5029091C602019703
:1013300061F461E087E270D9BCE36B2EB2E07B2EF2
:1013400019EB412E12E0512E02C060E0F3CFD30121
:101350008C91B2E06B0E711C37D9F201819391939D
:101360002F018DDBF8E46F16F2E07F0681F788E34A
:1013700084DA9093B6028093B50281DB89E37DDA4B
:101380009093B8028093B7027ADBF6E36F2EF2E017
:101390007F2EAFEA4A2EA2E05A2ED3018C91B2E002
:1013A0006B0E711C11D9F201819391932F0167DBB0
:1013B000FCE36F16F2E07F0681F773EA472E72E0D6
:1013C000572EEAE26E2EE2E07E2ED3018C91B2E03F
:1013D0006B0E711CF9D8F201819391932F014FDBB1
:1013E000F6E36F16F2E07F0681F786E346DA909324
:1013F000A00280939F0243DB87E33FDA9093A2022F
:101400008093A1023CDB5EE1652E52E0752E63E91C
:10141000462E62E0562ED3018C91B2E06B0E711C09
:10142000D3D8F201819391932F0129DBFAE26F1651
:10143000F2E07F0681F736E1632E32E0732E4BE84F
:10144000442E42E0542ED3018C91B2E06B0E711CFD
:10145000BBD8F201819391932F0111DBFEE16F164E
:10146000F2E07F0681F78EE308DA9093880280939A
:10147000870205DB8FE301DA90938A028093890269
:10148000FEDA6FEF70E087E032D916DA409083021F
:1014900050908402609085027090860264157505F4
:1014A0008605970548F408DA6093830270938402F6
:1014B00080938502909386024091C7025091C802A2
:1014C0006091C9027091CA0280910002909101025C
:1014D000A0910202B09103029A01AB01280F391FBB
:1014E0004A1F5B1F253F01E030074105510520F0F1
:1014F00024EF31E040E050E02093000230930102FD
:10150000409302025093030229833A834B835C8306
:10151000D3D94090830250908402609085027090ED
:1015200086027B018C01E418F50806091709C5013C
:10153000B40129813A814B815C8168D02E153F0529
:101540004007510780F515DA80918102909182025F
:101550000196863091052CF490938202809381024B
:1015600004C01092820210928102809181029091B7
:101570008202880F991FFC01ED55FD4F20813181BA
:101580002130310539F4FC01E65FFD4F6FEF70E06B
:101590008081ADD891D96093830270938402809347
:1015A0008502909386028BED92E00E94880167DAB3
:1015B00060917F0270918002072E000C880B990BBE
:1015C00097FF02C036DA02C04AE0F4D988E692E01A
:1015D000E0D980917F0290918002019690938002E1
:1015E00080937F028BED92E00E94B901892BD1F7A5
:1015F0008BED92E00E949701CC97D1F70E945602A2
:1016000072CD8091940390919503BFC0A1E21A2EF0
:10161000AA1BBB1BFD010DC0AA1FBB1FEE1FFF1F96
:10162000A217B307E407F50720F0A21BB30BE40BE6
:10163000F50B661F771F881F991F1A9469F760952D
:101640007095809590959B01AC01BD01CF010895E7
:10165000EE0FFF1F881F8BBF0790F691E02D1994A6
:10166000CF93DF938230910510F482E090E0E09117
:10167000B803F091B90320E030E0C0E0D0E030974B
:1016800011F14081518148175907C0F04817590797
:1016900061F482819381209719F09B838A832BC008
:1016A0009093B9038093B80326C02115310519F032
:1016B0004217530718F49A01BE01DF01EF010280BF
:1016C000F381E02DDCCF2115310509F1281B390B01
:1016D0002430310590F412968D919C9113976115E9
:1016E000710521F0FB019383828304C09093B903B9
:1016F0008093B803FD01329644C0FD01E20FF31F51
:1017000081939193225031092D933C933AC02091BB
:10171000B6033091B703232B41F420910602309198
:1017200007023093B7032093B6032091040230914F
:1017300005022115310541F42DB73EB7409108024D
:1017400050910902241B350BE091B603F091B703C9
:10175000E217F307A0F42E1B3F0B2817390778F088
:10176000AC014E5F5F4F2417350748F04E0F5F1FE7
:101770005093B7034093B6038193919302C0E0E086
:10178000F0E0CF01DF91CF9108950F931F93CF9396
:10179000DF93009709F48CC0FC0132971382128208
:1017A0000091B8031091B9030115110581F420814E
:1017B0003181820F931F2091B6033091B703281710
:1017C000390779F5F093B703E093B60371C0D801F8
:1017D00040E050E0AE17BF0750F412962D913C91B7
:1017E0001397AD012115310509F1D901F3CF9D0101
:1017F000DA013383228360817181860F971F8217FC
:10180000930769F4EC0128813981260F371F2E5F79
:101810003F4F318320838A819B8193838283452B31
:1018200029F4F093B903E093B80342C01396FC93F4
:10183000EE931297ED01499159919E01240F351FA6
:10184000E217F30771F480819181840F951F02964E
:1018500011969C938E938281938113969C938E9381
:101860001297E0E0F0E0D80112968D919C911397C9
:10187000009719F0F8018C01F6CF8D919C91980199
:101880002E5F3F4F820F931F2091B6033091B70315
:101890002817390769F4309729F41092B903109288
:1018A000B80302C0138212821093B7030093B603E9
:1018B000DF91CF911F910F9108956F927F928F9238
:1018C0009F92AF92BF92CF92DF92EF92FF920F93CF
:1018D0001F93CF93DF93EC01009781F4CB01DF914D
:1018E000CF911F910F91FF90EF90DF90CF90BF901D
:1018F000AF909F908F907F906F90B2CEFC01E60FDB
:10190000F71F9C0122503109E217F30708F4A8C021
:10191000D9010D911C91119706171707A8F00530F2
:10192000110508F49BC0C80104978617970708F4AF
:1019300095C002501109061B170B019311936D936B
:101940007C93CF0122DF8AC05B01A01AB10A4C014F
:10195000800E911EA091B803B091B90340E050E011
:10196000E12CF12C109709F44AC0A815B905D1F55E
:101970006D907C901197630182E0C80ED11CCA144F
:10198000DB0480F1A3014A195B096A0182E0C80EF9
:10199000D11C1296BC9012971396AC91B5E0CB1661
:1019A000D10440F0B282A38351834083D9016D9367
:1019B0007C930AC00E5F1F4FC301800F911FF90176
:1019C00091838083EB2DFA2FE114F10431F0D701DC
:1019D0001396FC93EE93129741C0F093B903E093F2
:1019E000B8033CC08D919C9111974817590708F492
:1019F000AC017D0112960D90BC91A02DB3CF8091CA
:101A0000B6039091B70388159905E1F44617570777
:101A1000C8F48091040290910502009741F48DB7BB
:101A20009EB74091080250910902841B950BE8175C
:101A3000F907B0F4F093B703E093B603F9017183AB
:101A400060830CC0CB010CDE7C01009749F0A8013B
:101A5000BE011BD0CE0199DEC70104C0CE0102C079
:101A600080E090E0DF91CF911F910F91FF90EF9078
:101A7000DF90CF90BF90AF909F908F907F906F90AE
:101A8000089581E090E0F89410C0FB01DC0102C0F1
:101A900001900D9241505040D8F70895FB01DC01B0
:101AA00001900D920020E1F7089511E0C7E2D1E026
:101AB00000E005C0802FFE01CBDD2196011DC8325C
:0C1AC000D10780E00807B1F7F894FFCFD1
:101ACC00DC0000000000BA038000040005000600E2
:101ADC0009000A000B003400320030002E002C00EC
:101AEC002A002800260024002200170019001B00E1
:101AFC001D001F00210020001E001C0035003300BB
:101B0C0031002F002D002B0040004100420043000B
:101B1C004400450000000000EF0159018801350226
:0C1B2C00B9019701AB012C000D0A00006C
:020000023000CC
:10E000000D9489F10D94B2F10D94B2F10D94B2F129
:10E010000D94B2F10D94B2F10D94B2F10D94B2F1F0
:10E020000D94B2F10D94B2F10D94B2F10D94B2F1E0
:10E030000D94B2F10D94B2F10D94B2F10D94B2F1D0
:10E040000D94B2F10D94B2F10D94B2F10D94B2F1C0
:10E050000D94B2F10D94B2F10D94B2F10D94B2F1B0
:10E060000D94B2F10D94B2F10D94B2F10D94B2F1A0
:10E070000D94B2F10D94B2F10D94B2F10D94B2F190
:10E080000D94B2F10D94B2F10D94B2F10D94B2F180
:10E090000D94B2F10D94B2F10D94B2F10D94B2F170
:10E0A0000D94B2F10D94B2F10D94B2F10D94B2F160
:10E0B0000D94B2F10D94B2F10D94B2F10D94B2F150
:10E0C0000D94B2F10D94B2F10D94B2F10D94B2F140
:10E0D0000D94B2F10D94B2F10D94B2F10D94B2F130
:10E0E0000D94B2F141546D656761323536300041AF
:10E0F000726475696E6F206578706C6F72657220DE
:10E1000073746B3530305632206279204D4C530099
:10E11000426F6F746C6F616465723E004875683F52
:10E1200000436F6D70696C6564206F6E203D200048
:10E130004350552054797065202020203D20005FF9
:10E140005F4156525F415243485F5F3D2000415658
:10E1500052204C696243205665723D20004743437C
:10E160002056657273696F6E203D20004350552024
:10E1700049442020202020203D20004C6F7720663D
:10E18000757365202020203D20004869676820665F
:10E190007573652020203D200045787420667573D6
:10E1A00065202020203D20004C6F636B2066757336
:10E1B000652020203D20004D617220203720323024
:10E1C000313300312E362E3800342E332E350056A2
:10E1D00023202020414444522020206F7020636F70
:10E1E00064652020202020696E73747275637469E1
:10E1F0006F6E2061646472202020496E74657272B3
:10E20000757074006E6F20766563746F7200726A49
:10E210006D702020006A6D70200057686174207056
:10E220006F72743A00506F7274206E6F7420737541
:10E2300070706F72746564004D7573742062652030
:10E2400061206C6574746572002000577269747483
:10E25000696E672045450052656164696E672045B7
:10E26000450045452065727220636E743D00504F35
:10E27000525400303D5A65726F2061646472003FF1
:10E280003D43505520737461747300403D454550C3
:10E29000524F4D207465737400423D426C696E6B41
:10E2A000204C454400453D44756D70204545505215
:10E2B0004F4D00463D44756D7020464C415348001B
:10E2C000483D48656C70004C3D4C69737420492F83
:10E2D0004F20506F72747300513D51756974005234
:10E2E0003D44756D702052414D00563D73686F7707
:10E2F00020696E7465727275707420566563746FF0
:10E30000727300593D506F727420626C696E6B00BD
:10E310002A0011241FBECFEFD1E2DEBFCDBF01E046
:10E320000CBF12E0A0E0B2E0EEE1FDEF03E00BBFB6
:10E3300002C007900D92A030B107D9F712E0A0E01B
:10E34000B2E001C01D92AE30B107E1F70F9460F367
:10E350000D948DFE01E20EBF0FEF0DBF11241FBE05
:10E360000D9460F30D9400F020E030E040ED57E0B4
:10E3700005C0FA013197F1F72F5F3F4F2817390792
:10E38000C0F308959C01260F311DC901A0E0B0E043
:10E390002F5F3F4FABBFFC018791882361F08093D3
:10E3A000C6008091C00086FFFCCF8091C0008064D1
:10E3B0008093C000EACF08958DE08093C6008091DD
:10E3C000C00086FFFCCF8091C00080648093C000B5
:10E3D0008AE08093C6008091C00086FFFCCF8091C8
:10E3E000C00080648093C00008950F94C2F10F9420
:10E3F000DCF10895FC019081992359F09093C600B7
:10E400008091C00086FFFCCF8091C0008064809323
:10E41000C0003196992379F70895282F982F929567
:10E420009F70892F805D8A3308F0895F8093C600D2
:10E430008091C00086FFFCCF8091C00080648093F3
:10E44000C000822F8F70982F905D9A3308F0995FEB
:10E450009093C6008091C00086FFFCCF8091C000E1
:10E4600080648093C00008959C01FB01853691056E
:10E470001CF46330710594F0C90164E670E00F94F8
:10E480002EFE605D7F4F6093C6008091C00086FFC6
:10E49000FCCF8091C00080648093C0002B30310598
:10E4A00014F43297B4F0C90164E670E00F942EFEC4
:10E4B0006AE070E00F942EFE605D7F4F6093C600AF
:10E4C0008091C00086FFFCCF8091C0008064809363
:10E4D000C000C9016AE070E00F942EFEC0968093E0
:10E4E000C6008091C00086FFFCCF8091C000806490
:10E4F0008093C00008951F93182F8EE692EE60E07F
:10E500000F94C2F11093C6008091C00086FFFCCF2B
:10E510008091C00080648093C0000F94DCF11F9153
:10E5200008952F923F924F925F926F927F928F92B7
:10E530009F92AF92BF92CF92DF92EF92FF920F9392
:10E540001F93DF93CF93CDB7DEB762970FB6F894E2
:10E55000DEBF0FBECDBF382E622ECA01DB015C01CB
:10E560006D01772420E2222E2E010894411C511CBB
:10E570008BC081E0A81680E0B80681E0C80680E084
:10E58000D80628F0C601AA27BB270F940DF2BB2797
:10E59000AD2D9C2D8B2D0F940DF28A2D0F940DF225
:10E5A0002092C6008091C00086FFFCCF8091C00001
:10E5B00080648093C0009DE29093C6008091C0006B
:10E5C00086FFFCCF8091C00080648093C0002092C1
:10E5D000C6008091C00086FFFCCF8091C00080649F
:10E5E0008093C00019828601750188249924A1E0D6
:10E5F0003A1651F03A1620F0B2E03B1661F409C029
:10E600000BBFF701779007C0C7010F9477FE782EF4
:10E6100002C0F7017080872D0F940DF22092C60082
:10E620008091C00086FFFCCF8091C0008064809301
:10E63000C000872D8052F401EF70F0708F3520F408
:10E64000E40DF51D708204C0E40DF51D8EE280839B
:10E650000894E11CF11C011D111D0894811C911CE2
:10E6600090E18916910409F0C2CF80E190E0A0E02A
:10E67000B0E0A80EB91ECA1EDB1E198AC2010F9493
:10E68000FAF10F94DCF16A94662009F072CF629679
:10E690000FB6F894DEBF0FBECDBFCF91DF911F91B3
:10E6A0000F91FF90EF90DF90CF90BF90AF909F9031
:10E6B0008F907F906F905F904F903F902F90089534
:10E6C0002F923F924F925F926F927F928F929F9282
:10E6D000AF92BF92CF92DF92EF92FF920F931F9370
:10E6E000DF93CF93CDB7DEB7CD53D1400FB6F894BB
:10E6F000DEBF0FBECDBF01E20EBF0FEF0DBF94B75F
:10E70000F894A89514BE80916000886180936000A1
:10E7100010926000789493FF05C0E0910002F091A0
:10E7200001021995279A2F9A8091C00082608093E8
:10E73000C00080E18093C40088E18093C1000000A4
:10E74000EE24FF24870144E0A42EB12CCC24DD2448
:10E7500024C0C5010197F1F70894E11CF11C011DCB
:10E76000111D21E2E2162EE4F20620E0020720E06D
:10E77000120718F031E0C32ED12CC801B70127ECE5
:10E780003BE140E050E00F9441FE611571058105C9
:10E79000910519F485B1805885B98091C00087FD35
:10E7A00003C0C114D104A9F2A6014F5F5F4FC25E3E
:10E7B000DE4F59834883CE51D140C25EDE4F8881FF
:10E7C0009981CE51D140019711F00D9410FEC05D9A
:10E7D000DE4F19821882C053D14060E0C15DDE4F28
:10E7E0001882CF52D14088249924C35DDE4F19820C
:10E7F0001882CD52D140C05EDE4F188219821A8233
:10E800001B82C052D140CE5CDE4F188219821A8220
:10E810001B82C253D140EE24FF2487010BBFF701B6
:10E8200007911691C45CDE4F19830883CC53D14005
:10E830000D940BFEC25EDE4F28813981CE51D1404E
:10E840002130310509F52091C600C25EDE4F1982E4
:10E850001882CE51D14022C02F5F3F4F4F4F5F4FA4
:10E86000213082E138078AE7480780E0580780F0C6
:10E87000C45CDE4FE881F981CC53D140EF5FFF4F9C
:10E8800019F0EE27FF27099420E030E040E050E047
:10E890008091C00087FFE0CF2091C600C35DDE4FAE
:10E8A00048815981CD52D1404F5F5F4FC35DDE4FEC
:10E8B00059834883CD52D140213209F063C64A3092
:10E8C000510508F05FC60894811C911C53E0851621
:10E8D000910409F059C600E010E018C081E280936D
:10E8E000C6008091C00086FFFCCF8091C00080648C
:10E8F0008093C0002F5F3F4F2931310579F70F9486
:10E90000DCF10F5F1F4F0530110519F020E030E0FA
:10E91000E5CF10920A0210920B0210920C02109294
:10E920000D02109206021092070210920802109235
:10E930000902109202021092030210920402109235
:10E9400005028FEE90EE60E00F94F5F180E191EE1C
:10E9500060E00F94C2F18091C00087FFFCCF9091DE
:10E96000C600903608F09F759032B8F09093C600BC
:10E970008091C00086FFFCCF8091C00080648093AE
:10E98000C000A0E2A093C6008091C00086FFFCCF2B
:10E990008091C00080648093C000983409F4D7C18E
:10E9A0009934B8F4923409F459C1933458F490333B
:10E9B00019F1903308F4E3C59F33A1F1903409F0C5
:10E9C000DEC5BDC0953409F470C1963409F0D7C5D1
:10E9D00098C1923509F42BC2933538F49C3409F46C
:10E9E000F5C1913509F0CBC518C2963509F445C279
:10E9F000993509F0C4C567C483E792EE62E00F94CD
:10EA0000F5F110920602109207021092080210927D
:10EA1000090210920A0210920B0210920C0210923C
:10EA20000D0213C18FE792EE62E00F94F5F18FEEC5
:10EA300090EE60E00F94F5F181E291EE60E00F94CA
:10EA4000C2F187EB91EE60E00F94F5F180E391EE77
:10EA500060E00F94C2F184EE90EE60E00F94F5F167
:10EA60008FE391EE60E00F94C2F186E090E061E008
:10EA700070E00F9434F20F94DCF18DE591EE60E0DC
:10EA80000F94C2F189EC91EE60E00F94F5F18EE401
:10EA900091EE60E00F94C2F183EC91EE60E00F9490
:10EAA000F5F18CE691EE60E00F94C2F18EE10F94E7
:10EAB0000DF288E90F940DF281E00F940DF20F949E
:10EAC000DCF18BE791EE60E00F94C2F119E0E0E039
:10EAD000F0E010935700E4918E2F0F940DF20F94F5
:10EAE000DCF18AE891EE60E00F94C2F1E3E0F0E03F
:10EAF00010935700E4918E2F0F940DF20F94DCF1D8
:10EB000089E991EE60E00F94C2F1E2E0F0E0109349
:10EB10005700E4918E2F0F940DF20F94DCF188EAE8
:10EB200091EE60E00F94C2F1E1E0F0E01093570045
:10EB30001491812F0F940DF20F94DCF107CF8BE825
:10EB400092EE62E00F94F5F18BE492EE60E00F94A8
:10EB5000F5F10F94DCF100E010E019C0C8016F2D51
:10EB60000F947FFEFF2031F489E492EE60E00F9471
:10EB7000C2F10BC0F092C6008091C00086FFFCCFAE
:10EB80008091C00080648093C0000F5F1F4FC80158
:10EB900081519F41A0E0B0E0ABBFFC01F790BAE229
:10EBA000FB1621F0E2E000301E07C1F60F94DCF105
:10EBB0000F94DCF187E592EE60E00F94F5F10F948D
:10EBC000DCF1CC24DD2400E010E01EC0C8010F946D
:10EBD00077FEF82E882331F489E492EE60E00F94FA
:10EBE000C2F10BC08093C6008091C00086FFFCCFAD
:10EBF0008091C00080648093C000FE1419F00894D6
:10EC0000C11CD11C0F5F1F4FC80181519F41A0E063
:10EC1000B0E0ABBFFC01E790FAE2EF1621F022E092
:10EC20000030120799F60F94DCF10F94DCF182E6C4
:10EC300092EE60E00F94C2F1C60161E070E00F94C3
:10EC400034F20F94DCF10F94DCF110920202109276
:10EC50000302109204021092050278CE89E992EE26
:10EC600062E00F94F5F1279A2F9A16C02F9880E052
:10EC700090E0E0EDF7E03197F1F7019684369105E9
:10EC8000C1F72F9A80E090E0E0EDF7E03197F1F7DF
:10EC9000019684369105C1F78091C00087FFE6CFC9
:10ECA0008091C00087FFFCCF64C485EA92EE62E0E9
:10ECB0000F94F5F140910202509103026091040219
:10ECC0007091050281E020E10F9491F2809102029F
:10ECD00090910302A0910402B091050280509F4FD1
:10ECE000AF4FBF4F8093020290930302A0930402A0
:10ECF000B093050280509041A040B04008F426CE69
:10ED0000A4CF83EB92EE62E00F94F5F140910602FE
:10ED100050910702609108027091090280E020E1A1
:10ED20000F9491F28091060290910702A09108023F
:10ED3000B091090280509F4FAF4FBF4F80930602A2
:10ED400090930702A0930802B0930902FFCD80ECD4
:10ED500092EE62E00F94F5F183E792EE60E00F949B
:10ED6000F5F18FE792EE60E00F94F5F18BE892EE0B
:10ED700060E00F94F5F189E992EE60E00F94F5F10F
:10ED800085EA92EE60E00F94F5F183EB92EE60E09D
:10ED90000F94F5F180EC92EE60E00F94F5F187ECC2
:10EDA00092EE60E00F94F5F188ED92EE60E00F9442
:10EDB000F5F18FED92EE60E00F94F5F18AEE92EEB0
:10EDC00060E00F94F5F183E093EEBDCD87EC92EE19
:10EDD00062E00F94F5F181E40F947BF282E40F94EA
:10EDE0007BF283E40F947BF284E40F947BF285E45E
:10EDF0000F947BF286E40F947BF287E40F947BF20E
:10EE000088E40F947BF28AE40F947BF28BE40F94F6
:10EE10007BF28CE40F947BF299CD88ED92EE62E068
:10EE20000F94F5F1772473948824992409C48FED05
:10EE300092EE62E00F94F5F140910A0250910B02BC
:10EE400060910C0270910D0282E020E10F9491F22A
:10EE500080910A0290910B02A0910C02B0910D02D8
:10EE600080509F4FAF4FBF4F80930A0290930B0289
:10EE7000A0930C02B0930D0269CD8AEE92EE62E08F
:10EE80000F94F5F184EE90EE60E00F94F5F18FECC5
:10EE900091EE60E00F94F5F1662477244301CC5D98
:10EEA000DE4F19821882C452D140D401C301B695F5
:10EEB000A79597958795CA5DDE4F88839983AA8326
:10EEC000BB83C652D140CC5DDE4FA881B981C4520C
:10EED000D1401196CC5DDE4FB983A883C452D14096
:10EEE000CD0162E070E00F9434F2B0E2B093C6005E
:10EEF0008091C00086FFFCCF8091C0008064809329
:10EF0000C000EDE2E093C6008091C00086FFFCCF18
:10EF10008091C00080648093C000F0E2F093C6004E
:10EF20008091C00086FFFCCF8091C00080648093F8
:10EF3000C000CA5DDE4FE880F9800A811B81C6529D
:10EF4000D140BB27A12F902F8F2D0F940DF2CA5DBA
:10EF5000DE4F8881C652D1400F940DF2B0E2FB2EF5
:10EF6000F092C6008091C00086FFFCCF8091C00067
:10EF700080648093C0000DE30093C6008091C000C0
:10EF800086FFFCCF8091C00080648093C00010E2B7
:10EF90001093C6008091C00086FFFCCF8091C00016
:10EFA00080648093C0008BBEF3012791C65DDE4F65
:10EFB0002883CA52D140A22EBB24CC24DD2408943D
:10EFC000611C711C811C911C8BBEF3018791282E42
:10EFD0003324442455240894611C711C811C911C09
:10EFE0008BBEF3013791C55DDE4F3883CB52D140E4
:10EFF0000894611C711C811C911C8BBEF30147910C
:10F00000C45DDE4F4883CC52D140ADEFEA2EAFEF66
:10F01000FA2EAFEF0A2FAFEF1A2F6E0C7F1C801E57
:10F02000911E142D032DF22CEE24EA0CFB1C0C1D5A
:10F030001D1D0F940DF220E22093C6008091C000A8
:10F0400086FFFCCF8091C00080648093C000C65DC5
:10F05000DE4F8881CA52D1400F940DF230E23093D6
:10F06000C6008091C00086FFFCCF8091C000806404
:10F070008093C000C45DDE4F8881CC52D1400F9494
:10F080000DF240E24093C6008091C00086FFFCCFA5
:10F090008091C00080648093C000C55DDE4F888190
:10F0A000CB52D1400F940DF250E25093C6008091A4
:10F0B000C00086FFFCCF8091C00080648093C000B8
:10F0C0008FEFE8168FEFF80680E0080780E018075A
:10F0D00031F484E092EE60E00F94C2F1DFC0D80119
:10F0E000C7018070907CA070B0708050904CA040A0
:10F0F000B040D1F52FEF3FE340E050E0E222F322B1
:10F1000004231523CA5DDE4FA880B980CA80DB8046
:10F11000C652D140AE0CBF1CC01ED11EAA0CBB1CD7
:10F12000CC1CDD1C8EE092EE60E00F94C2F1BB2798
:10F13000A12F902F8F2D0F940DF28E2D0F940DF285
:10F1400030E23093C6008091C00086FFFCCF8091F2
:10F15000C00080648093C0004EE34093C60080915D
:10F16000C00086FFFCCF87C08EE09EEFA0E0B0E03D
:10F17000E822F9220A231B239CE0E91694E9F90608
:10F1800090E0090790E0190709F088C0C45DDE4FE0
:10F19000A881CC52D140EA2EFF2400E010E0102FCD
:10F1A0000F2DFE2CEE24C55DDE4FB881CB52D14031
:10F1B000EB0EF11C011D111DD601C501817090706F
:10F1C000A070B070DC0199278827E80EF91E0A1F8D
:10F1D0001B1F20EF30E040E050E0A222B322C42207
:10F1E000D52241E1AA0CBB1CCC1CDD1C4A95D1F7F1
:10F1F000EA0CFB1C0C1D1D1D81E090E0A0E0B0E0BE
:10F20000282239224A225B2235E1220C331C441C7D
:10F21000551C3A95D1F7E20CF31C041D151D57013E
:10F220006801AA0CBB1CCC1CDD1C85E192EE60E0E1
:10F230000F94C2F1C801AA27BB270F940DF2BB2778
:10F24000A12F902F8F2D0F940DF28E2D0F940DF274
:10F2500090E29093C6008091C00086FFFCCF809121
:10F26000C00080648093C000AEE3A093C60080918C
:10F27000C00086FFFCCF8091C00080648093C000F6
:10F28000C601AA27BB270F940DF2BB27AD2D9C2DDD
:10F290008B2D0F940DF28A2D0F940DF20F94DCF14B
:10F2A000CC5DDE4FE881F981C452D140F99709F471
:10F2B0004DCBF4E0EF2EF12C012D112D6E0C7F1CA7
:10F2C000801E911EF2CD83E093EE62E00F94F5F183
:10F2D0008AE192EE60E00F94C2F18091C00087FF56
:10F2E000FCCF1091C6001F751093C6008091C0001E
:10F2F00086FFFCCF8091C00080648093C0000F9493
:10F30000DCF1812F81548A3108F036C1163409F4BA
:10F3100095C0173490F4133409F44EC0143430F40B
:10F320001134F1F0123409F01DC130C0143409F465
:10F3300059C0153409F016C16BC01A3409F4C4C0A1
:10F340001B3438F4173409F48FC0183409F00AC19B
:10F35000A1C01B3409F4D2C01C3409F003C1E8C0B9
:10F360008FEF81B90DC082B1809582B980E090E0C5
:10F37000E0EDF7E03197F1F70196883C9105C1F790
:10F380008091C00087FFEFCF12B8EFC08FEF84B934
:10F390000DC085B1809585B980E090E0E0EDF7E0A3
:10F3A0003197F1F70196883C9105C1F78091C00033
:10F3B00087FFEFCF15B8D9C08FEF87B90DC088B1DF
:10F3C000809588B980E090E0E0EDF7E03197F1F7C3
:10F3D0000196883C9105C1F78091C00087FFEFCF6F
:10F3E00018B8C3C08FEF8AB90DC08BB180958BB9A7
:10F3F00080E090E0E0EDF7E03197F1F70196883C8E
:10F400009105C1F78091C00087FFEFCF1BB8ADC059
:10F410008FEF8DB90DC08EB180958EB980E090E0F0
:10F42000E0EDF7E03197F1F70196883C9105C1F7DF
:10F430008091C00087FFEFCF1EB897C08FEF80BBD1
:10F440000DC081B3809581BB80E090E0E0EDF7E0F6
:10F450003197F1F70196883C9105C1F78091C00082
:10F4600087FFEFCF11BA81C08FEF83BB0DC084B38C
:10F47000809584BB80E090E0E0EDF7E03197F1F714
:10F480000196883C9105C1F78091C00087FFEFCFBE
:10F4900014BA6BC08FEF809301010FC080910201FD
:10F4A00080958093020180E090E0E0EDF7E03197F5
:10F4B000F1F70196883C9105C1F78091C00087FF64
:10F4C000EDCF1092020151C08FEF809304010FC065
:10F4D0008091050180958093050180E090E0E0ED4A
:10F4E000F7E03197F1F70196883C9105C1F78091DB
:10F4F000C00087FFEDCF1092050137C08FEF8093DA
:10F5000007010FC08091080180958093080180E079
:10F5100090E0E0EDF7E03197F1F70196883C910536
:10F52000C1F78091C00087FFEDCF109208011DC088
:10F530008FEF80930A010FC080910B01809580931B
:10F540000B0180E090E0E0EDF7E03197F1F70196F4
:10F55000883C9105C1F78091C00087FFEDCF1092E4
:10F560000B0103C085E292EEEEC98091C00087FFD7
:10F57000FCCF8091C600EAC988E392EEE4C98CE131
:10F5800091EEE1C988249924933011F1943028F444
:10F59000913089F09230B8F408C0953061F195301F
:10F5A000F0F0963009F048C043C02B3109F042C951
:10F5B00091E06BE13FC96227C15DDE4F2883CF52E6
:10F5C000D14092E037C9B22FA0E0622793E032C960
:10F5D000822F90E0A82BB92B622794E02BC92E3004
:10F5E00009F039C3622795E0C05DDE4F19821882A9
:10F5F000C053D1401FC9E1E0F0E0EC0FFD1FC05D3A
:10F60000DE4F08811981C053D140E00FF11F2083E4
:10F610000F5F1F4FC05DDE4F19830883C053D14079
:10F6200062270A171B0709F005C9D80196E002C92D
:10F63000261709F010C303C0973009F0FBC87724E0
:10F640009981933109F412C19431C8F4963009F4C8
:10F65000D8C0973050F4923009F406C1933009F4C1
:10F660006DC0913009F059C253C0913109F477C08F
:10F67000923108F0BBC0903109F04FC2F5C098310B
:10F6800009F487C0993150F4953109F4EFC09531F0
:10F6900008F4C6C1963109F040C2C2C19A3109F4DA
:10F6A0006CC09A3108F491C09B3109F45BC09D3164
:10F6B00009F033C29D81903359F48F81882311F46E
:10F6C0009EE11CC0813011F091E018C098E916C08D
:10F6D000892F807591F0903539F4E0E0F0E089E011
:10F6E0008093570094910AC0983539F4E3E0F0E034
:10F6F00089E080935700949101C090E01A821B82A8
:10F700008D818C831D829E831F8227E030E009C299
:10F710001A8288E08B8381E48C8386E58D8382E581
:10F720008E8389E48F8383E5888780E589878FE5E9
:10F730008A8782E38B872BE030E0F3C18A818139AD
:10F7400041F0823941F0803911F48FE005C080E04A
:10F7500003C082E001C08AE01A828B8344C0772410
:10F76000739482C08D81882311F48EE12CC0813086
:10F7700011F081E028C088E926C01A82E1E0F0E0BB
:10F7800089E08093570084918B831C8224E030E0D1
:10F79000C8C18B81803589F48C81883039F4E2E0EE
:10F7A000F0E089E08093570084910DC0E0E0F0E044
:10F7B00089E080935700849106C0E3E0F0E089E09F
:10F7C0008093570084911A82DFCF8D81836C99E0FA
:10F7D000E1E0F0E0082E90935700E89507B600FCB2
:10F7E000FDCF1A821B8223E030E09BC180EC8A832C
:10F7F000CE5CDE4F188219821A821B82C253D1401E
:10F800008EC18A8190E0A0E0B0E0582F44273327D2
:10F8100022278B8190E0A0E0B0E0DC0199278827C7
:10F82000282B392B4A2B5B2B8D8190E0A0E0B0E098
:10F83000282B392B4A2B5B2B8C8190E0A0E0B0E089
:10F84000BA2FA92F982F8827282B392B4A2B5B2BCF
:10F85000220F331F441F551FC05EDE4F288339839C
:10F860004A835B83C052D1401A8259C13A81C95C34
:10F87000DE4F3883C753D140CA5CDE4F1882C6536F
:10F88000D1408B81C82EDD24CA5CDE4F488159816E
:10F89000C653D140C42AD52A933109F082C0CE5C28
:10F8A000DE4F88819981AA81BB81C253D1408050AB
:10F8B000904CA340B04030F583E0CE5CDE4FE88052
:10F8C000F9800A811B81C253D140F70100935B008C
:10F8D00080935700E89507B600FCFDCFCE5CDE4F65
:10F8E000088119812A813B81C253D14000501F4FAA
:10F8F0002F4F3F4FCE5CDE4F088319832A833B8313
:10F90000C253D140C05EDE4F488159816A817B81FC
:10F91000C052D140DE011B9631E08C9111962C91A2
:10F9200011971296C75CDE4F2883C953D140C85C3B
:10F93000DE4F1882C853D14090E0C85CDE4FE881AA
:10F94000F981C853D1408E2B9F2B0C01FA01609393
:10F950005B0030935700E89511244E5F5F4F6F4F67
:10F960007F4F0EEFE02E0FEFF02ECE0CDF1CC114F8
:10F97000D10499F685E0C05EDE4F088119812A81A5
:10F980003B81C052D140F80120935B008093570027
:10F99000E89507B600FCFDCF81E180935700E8951C
:10F9A00035C0C05EDE4F88819981AA81BB81C0527B
:10F9B000D140B695A795979587957C018601ABE0D8
:10F9C000AA2EB12CAC0EBD1E0BC0D5016D915D01F0
:10F9D000C7010F947FFE0894E11CF11C01501040F8
:10F9E0000115110591F7A60160E070E0440F551F65
:10F9F000661F771FC05EDE4FE880F9800A811B8199
:10FA0000C052D1404E0D5F1D601F711F1A82C05E33
:10FA1000DE4F488359836A837B83C052D1407FC0C5
:10FA2000FA80C55CDE4FF882CB53D140C65CDE4F16
:10FA30001882CA53D1408B81C82EDD24C65CDE4FAC
:10FA400008811981CA53D140C02AD12A1A828981DA
:10FA5000BE016D5F7F4F843121F59601C05EDE4FA0
:10FA6000E880F9800A811B81C052D1400BBFF701A9
:10FA700087919691DB018C9311969C936E5F7F4FDB
:10FA8000D801C7010296A11DB11DC05EDE4F88835B
:10FA90009983AA83BB83C052D14022503040F1F6F3
:10FAA00036C0C05EDE4F288139814A815B81C052F9
:10FAB000D1400894C108D108760100E010E0089414
:10FAC000C11CD11C0894E11CF11C011D111DE20E8A
:10FAD000F31E041F151F21BDBB27A52F942F832FB5
:10FAE00082BD2F5F3F4F4F4F5F4FF89A80B5DB01CC
:10FAF0008D93BD012E153F054007510761F7C05E8C
:10FB0000DE4F288339834A835B83C052D1409601FC
:10FB10002D5F3F4FFB01108204C080EC8A8322E0FE
:10FB200030E08BE18093C6008091C00086FFFCCF5F
:10FB30008091C00080648093C000C15DDE4FF88179
:10FB4000CF52D140F093C6008091C00086FFFCCF19
:10FB50008091C00080648093C000432F3093C60022
:10FB60008091C00086FFFCCF8091C00080648093AC
:10FB7000C000922F2093C6008091C00086FFFCCF6A
:10FB80008091C00080648093C0008EE08093C600A6
:10FB90008091C00086FFFCCF8091C000806480937C
:10FBA000C00065E1C15DDE4FE880CF52D1406E25D7
:10FBB00069276427FE01319610C090819093C6009A
:10FBC0008091C00086FFFCCF31968091C000806498
:10FBD0008093C0006927215030402115310569F715
:10FBE0006093C6008091C00086FFFCCF8091C0006A
:10FBF00080648093C00085B1805885B9772081F4F6
:10FC0000C15DDE4F0881CF52D1400F5FC15DDE4F35
:10FC10000883CF52D14090E0A0E0B0E00D941AF4F8
:10FC200027982F9880E090E020ED37E0F901319798
:10FC3000F1F7019684369105C9F700008091C00064
:10FC40008D7F8093C00081E180935700E895EE2777
:10FC5000FF270994FFCF90E00D941AF497FB092E2B
:10FC600007260AD077FD04D02ED006D000201AF443
:10FC7000709561957F4F0895F6F7909581959F4F08
:10FC80000895A1E21A2EAA1BBB1BFD010DC0AA1FDD
:10FC9000BB1FEE1FFF1FA217B307E407F50720F0F5
:10FCA000A21BB30BE40BF50B661F771F881F991F70
:10FCB0001A9469F760957095809590959B01AC01B9
:10FCC000BD01CF010895AA1BBB1B51E107C0AA1FAC
:10FCD000BB1FA617B70710F0A61BB70B881F991FED
:10FCE0005A95A9F780959095BC01CD010895F99991
:10FCF000FECF92BD81BDF89A992780B50895262F31
:10FD0000F999FECF1FBA92BD81BD20BD0FB6F89400
:0EFD1000FA9AF99A0FBE01960895F894FFCF63
:040000033000E000E9
:00000001FF