:1000000014C1000040C100003EC100003CC100001E
:100010003AC1000038C1000036C1000034C1000000
:1000200032C1000030C100002EC100002CC1000010
:100030002AC1000028C1000026C1000024C1000020
:1000400022C1000020C100001EC100001CC1000030
:100050001AC1000018C1000016C10000B7C300009B
:1000600012C100007DC3000052C300000CC100009B
:100070000AC1000008C1000006C1000004C1000060
:1000800002C1000000C10000FEC00000FCC0000072
:10009000FAC00000F8C00000F6C00000F4C0000084
:1000A000F2C00000F0C00000EEC00000ECC0000094
:1000B000EAC00000E8C00000E6C00000E4C00000A4
:1000C000E2C00000E0C00000DEC00000DCC00000B4
:1000D000DAC00000D8C00000D6C00000D4C00000C4
:1000E000D2C0000093029602850289028F02CD02DF
:1000F0009A029E02A402A802AC02B202B602BA029E
:10010000CD02C002C402C802000021002400270062
:100110002A002D0030003300010100000401070116
:100120000A0100002200250028002B002E003100CB
:10013000340002010000050108010B0100000A0B58
:1001400002090C0D0E080703040100000000000066
:10015000000000000000000000000000000000009F
:10016000000000000000000012111000000000005C
:10017000000000000000000000000000000000007F
:100180000000000020002300260029002C002F0082
:100190003200000100000301060109010505050503
:1001A000070508080808020202020A0A08080404EF
:1001B000040401010101010101010303030303031D
:1001C0000303040707070C0C0C0C0C0C0C0C0202AC
:1001D000020206060606060606060B0B0B0B0B0BA9
:1001E0000B0B010210202008081020401020408036
:1001F00002010201080402010102040810204080EB
:100200008040201008040201800402018040201078
:1002100008040201080402010102040810204080C1
:100220000102040810204080280611241FBECFEFD1
:10023000D1E2DEBFCDBF00E00CBF12E0A0E0B2E033
:10024000E2E4FDE000E00BBF02C007900D92AC338A
:10025000B107D9F723E0ACE3B2E001C01D92AA31A7
:10026000B207E1F711E0C5E1D1E000E005C0219758
:100270000109802FFE0135D5C431D10780E0080780
:10028000B1F733D35CC5BCCECF92DF92EF92FF9231
:100290000F931F93CF93DF936C017A018B01C0E022
:1002A000D0E0CE15DF0589F0D8016D918D01D60122
:1002B000ED91FC910190F081E02DC6011995892BFB
:1002C00011F47E0102C02196ECCFC701DF91CF91DE
:1002D0001F910F91FF90EF90DF90CF9008950895B8
:1002E00080E090E00895FC01538D448D252F30E08F
:1002F000842F90E0821B930B541710F0CF96089533
:1003000001970895FC01918D828D981761F0828D7F
:10031000DF01A80FB11D5D968C91928D9F5F9F7339
:10032000928F90E008958FEF9FEF0895FC01918DDB
:10033000828D981731F0828DE80FF11D858D90E048
:1003400008958FEF9FEF0895FC01918D228D892FE5
:1003500090E0805C9F4F821B91098F7399270895CD
:100360008FE492E0F1DF21E0892B09F420E0822F75
:100370000895FC01848DDF01A80FB11DA35ABF4F62
:100380002C91848D90E001968F739927848FA68994
:10039000B7892C93A089B1898C9180648C93938DBB
:1003A000848D981306C00288F389E02D80818F7DAB
:1003B00080830895EF92FF920F931F93CF93DF9363
:1003C000EC0181E0888F9B8D8C8D981305C0E889A6
:1003D000F989808185FD23C0F62E0B8D10E00F5F1B
:1003E0001F4F0F731127E02E8C8DE8120BC00FB634
:1003F00007FCFACFE889F989808185FFF5CFCE0126
:10040000B8DFF2CF8B8DFE01E80FF11DE35AFF4FED
:10041000F0820B8FEA89FB898081806207C0EE89B8
:10042000FF896083E889F98980818064808381E025
:1004300090E0DF91CF911F910F91FF90EF90089581
:10044000CF93DF93EC01888D8823C1F0EA89FB8983
:10045000808185FD05C0A889B9898C9186FD0EC073
:100460000FB607FCF5CF808185FFF2CFA889B98947
:100470008C9185FFEDCFCE017CDFE8CFDF91CF916E
:10048000089580E090E0892B19F06ADF811125C082
:1004900080E090E0892B41F080E090E0892B21F012
:1004A0000E94000081111CC080E090E0892B41F087
:1004B00080E090E0892B21F00E940000811113C0A0
:1004C00080E090E0892BA1F080E090E0892B81F022
:1004D0000E94000081110AC008950E940000D8CF38
:1004E0000E940000E1CF0E940000EACF0C940000BF
:1004F000089590E0FC013197E231F10508F04DC01C
:100500008827EE58FF4F8F4FECC3809180008F7784
:1005100003C0809180008F7D80938000089580913A
:100520008000877FF9CF84B58F7702C084B58F7D37
:1005300084BD08958091B0008F7703C08091B00092
:100540008F7D8093B0000895809190008F7707C0D1
:10055000809190008F7D03C080919000877F809371
:10056000900008958091A0008F7707C08091A0002F
:100570008F7D03C08091A000877F8093A0000895A5
:10058000809120018F7707C0809120018F7D03C06B
:1005900080912001877F809320010895CF93DF937E
:1005A000282F30E0F901E45CFE4F8491F901EE510F
:1005B000FE4FD491F901E456FE4FC491CC2389F04B
:1005C000811197DFEC2FF0E0EE0FFF1FEE57FE4F8B
:1005D000A591B491EC91ED2381E090E021F480E0CD
:1005E00002C080E090E0DF91CF9108951F93CF93F8
:1005F000DF93282F30E0F901E45CFE4F8491F9018C
:10060000EE51FE4FD491F901E456FE4FC491CC2334
:10061000C1F0162F81116DDFEC2FF0E0EE0FFF1F00
:10062000EE5DFE4FA591B4918FB7F894111105C0FE
:100630009C91ED2FE095E92302C0EC91ED2BEC931A
:100640008FBFDF91CF911F910895CF93DF9390E0FB
:10065000FC01EE51FE4F2491FC01E456FE4F8491C3
:10066000882361F190E0880F991FFC01E85FFE4F3D
:10067000C591D491FC01EE5DFE4FA591B49161113D
:1006800009C09FB7F8948881209582238883EC91D4
:100690002E230BC0623061F49FB7F8943881822F0B
:1006A000809583238883EC912E2B2C939FBF06C0CB
:1006B0008FB7F894E8812E2B28838FBFDF91CF91DD
:1006C00008953FB7F8948091410290914202A09121
:1006D0004302B091440226B5A89B05C02F3F19F0F4
:1006E0000196A11DB11D3FBFBA2FA92F982F8827B2
:1006F000820F911DA11DB11DBC01CD0142E0660F0D
:10070000771F881F991F4A95D1F7089514D31F9218
:100710000F920FB60F9211240BB60F922F933F93A7
:100720004F935F936F937F938F939F93AF93BF93F9
:10073000EF93FF938FE492E01CDEFF91EF91BF9166
:10074000AF919F918F917F916F915F914F913F9169
:100750002F910F900BBE0F900FBE0F901F9018950A
:100760001F920F920FB60F9211240BB60F922F9378
:100770008F939F93EF93FF93E0915F02F09160025C
:100780008081E0916502F091660282FD12C0908145
:10079000809168028F5F8F7320916902821751F0F8
:1007A000E0916802F0E0E15BFD4F958F8093680275
:1007B00001C08081FF91EF919F918F912F910F90B8
:1007C0000BBE0F900FBE0F901F9018951F920F92A7
:1007D0000FB60F9211242F933F938F939F93AF9354
:1007E000BF9380913D0290913E02A0913F02B09153
:1007F000400230913C0223E0230F2D3720F4019674
:10080000A11DB11D05C026E8230F0296A11DB11D33
:1008100020933C0280933D0290933E02A0933F02BE
:10082000B09340028091410290914202A091430214
:10083000B09144020196A11DB11D80934102909395
:100840004202A0934302B0934402BF91AF919F91A3
:100850008F913F912F910F900FBE0F901F90189581
:10086000CF92DF92EF92FF920F931F93E82FF92F11
:1008700005C0015011092109310961F190819623C8
:100880009417B9F305C0015011092109310911F17B
:10089000908196239413F7CFC12CD12CE12CF12C0D
:1008A0000AC08FEFC81AD80AE80AF80A0C151D0505
:1008B0002E053F0579F080818623841791F36C2DF6
:1008C0007D2D8E2D9F2D1F910F91FF90EF90DF902A
:1008D000CF90089560E070E080E090E01F910F916C
:1008E000FF90EF90DF90CF900895789484B5826068
:1008F00084BD84B5816084BD85B5826085BD85B5C4
:10090000816085BD80916E00816080936E00109241
:1009100081008091810082608093810080918100BC
:10092000816080938100809180008160809380004D
:100930008091B10084608093B1008091B0008160AB
:100940008093B000809191008260809391008091AB
:1009500091008160809391008091900081608093EC
:1009600090008091A10082608093A1008091A100FD
:1009700081608093A1008091A00081608093A0009D
:100980008091210182608093210180912101816009
:1009900080932101809120018160809320018091CA
:1009A0007A00846080937A0080917A0082608093DC
:1009B0007A0080917A00816080937A0080917A0039
:1009C000806880937A001092C100E0915F02F091FC
:1009D000600282E08083E0915B02F0915C02108211
:1009E000E0915D02F0915E028FEC808310926702CD
:1009F000E0916302F091640286E08083E0916102FD
:100A0000F0916202808180618083E0916102F091C7
:100A10006202808188608083E0916102F0916202CD
:100A2000808180688083E0916102F0916202808120
:100A30008F7D8083C5E4D2E002E112E01992199221
:100A4000F80180810E5F1F4F61E0FFDDF2E0CF34DF
:100A5000DF07A1F761E088E0F8DDC0E3D2E088813C
:100A6000229660E0F2DD22E0CC33D207C1F760E0ED
:100A700082E0EBDD60E083E0E8DD60E084E0E5DD7E
:100A8000C3E0D0E04AEE242E41E0342E5AE3452E56
:100A9000512C612C712C0EE013E030E3E32E32E098
:100AA000F32EF7018081F2E0EF0EF11C77DDF80103
:100AB000819391938F01FCE3EF16F2E0FF0689F733
:100AC000E8E2F2E0A6E0B3E080813296863308F0F7
:100AD000865390917B00282F2870977F922B9093BC
:100AE0007B008770806480937C0080917A008064B2
:100AF00080937A0080917A0086FDFCCF8091780007
:100B00002091790090E0922B8D939D9322E0E03329
:100B1000F207D1F682E042DD909301038093000357
:100B200083E03CDD909303038093020384E036DD91
:100B300090930503809304032CE1E22E22E0F22E31
:100B400004EF12E0F7018081F2E0EF0EF11C26DDE8
:100B5000F801819391938F01F6E2EF16F2E0FF0620
:100B600089F761E088E071DD60E088E03FDDCE017B
:100B70000197F1F761E088E039DD8FE090E00197BF
:100B8000F1F760E088E032DD60E088E05EDDF101F1
:100B90006491E4EAF1E08491E82FF0E0EE0FFF1FAA
:100BA000EE57FE4F8591949100E412E42FE030E07F
:100BB000462F56DE611571058105910549F0DC016E
:100BC000CB010196A11DB11DBC01CD019F7003C0D9
:100BD00060E070E0CB01A301920167D02093F002A6
:100BE0003093F1024093F2025093F30288E0D6DC96
:100BF0009093ED028093EC0289E0D0DC9093EF02B9
:100C00008093EE025EDD4B015C018EE1C82ED12C9B
:100C1000E12CF12C56DDDC01CB0188199909AA09D8
:100C2000BB09883E9340A105B10558F0F1E0CF1A09
:100C3000D108E108F10828EE820E23E0921EA11CE3
:100C4000B11CC114D104E104F10421F71ADC23CF53
:100C5000EFE4F2E01382128288EE93E0A0E0B0E0CD
:100C600084839583A683B78384E092E09183808315
:100C700085EC90E09587848784EC90E09787868761
:100C800080EC90E0918B808B81EC90E0938B828B59
:100C900082EC90E0958B848B86EC90E0978B868B32
:100CA000118E128E138E148E0895052E97FB16F456
:100CB00000940FD057FD05D01CD007FC02D046F49D
:100CC00008C050954095309521953F4F4F4F5F4F4D
:100CD000089590958095709561957F4F8F4F9F4FA8
:100CE0000895EE0FFF1F881F8BBF0790F691E02D30
:100CF0001994A1E21A2EAA1BBB1BFD010DC0AA1F4D
:100D0000BB1FEE1FFF1FA217B307E407F50720F074
:100D1000A21BB30BE40BF50B661F771F881F991FEF
:100D20001A9469F760957095809590959B01AC0138
:100D3000BD01CF01089581E090E0F89400C0F894DF
:020D4000FFCFE3
:100D420000000000DA01440173012002A4018201C3
:100D520096010500060009000A000B000A000B00BC
:100D62000C000D000E000F00000001000200030045
:0C0D72003400320030002E002C002A005B
:00000001FF
