:1000000014C1000040C100003EC100003CC100001E
:100010003AC1000038C1000036C1000034C1000000
:1000200032C1000030C100002EC100002CC1000010
:100030002AC1000028C1000026C1000024C1000020
:1000400022C1000020C100001EC100001CC1000030
:100050001AC1000018C1000016C1000086C40000CB
:1000600012C100004CC4000021C400000CC10000FB
:100070000AC1000008C1000006C1000004C1000060
:1000800002C1000000C10000FEC00000FCC0000072
:10009000FAC00000F8C00000F6C00000F4C0000084
:1000A000F2C00000F0C00000EEC00000ECC0000094
:1000B000EAC00000E8C00000E6C00000E4C00000A4
:1000C000E2C00000E0C00000DEC00000DCC00000B4
:1000D000DAC00000D8C00000D6C00000D4C00000C4
:1000E000D2C0000093029602850289028F02CD02DF
:1000F0009A029E02A402A802AC02B202B602BA029E
:10010000CD02C002C402C802000021002400270062
:100110002A002D0030003300010100000401070116
:100120000A0100002200250028002B002E003100CB
:10013000340002010000050108010B01000020004D
:100140002300260029002C002F00320000010000AF
:10015000030106010901050505050705080808084A
:10016000020202020A0A080804040404010101014F
:10017000010101010303030303030303040707074A
:100180000C0C0C0C0C0C0C0C0202020206060606EF
:10019000060606060B0B0B0B0B0B0B0B01021020BC
:1001A00020080810204010204080020102010804AD
:1001B0000201010204081020408080402010080441
:1001C000020180040201804020100804020108049A
:1001D00002010102040810204080010204081020DE
:1001E000408000000A0B02090C0D0E0807030401F1
:1001F00000000000000000000000000000000000FF
:1002000000000000000000000000000000001211CB
:1002100010000000000000000000000000000000CE
:1002200000000000000000003E0711241FBECFEFB9
:10023000D1E2DEBFCDBF00E00CBF12E0A0E0B2E033
:10024000EEE6FFE000E00BBF02C007900D92A8347D
:10025000B107D9F723E0A8E4B2E001C01D92A632AD
:10026000B207E1F711E0C5E1D1E000E005C0219758
:100270000109802FFE016DD6C431D10780E0080747
:10028000B1F702D472C6BCCECF92DF92EF92FF924A
:100290000F931F93CF93DF936C017A018B01C0E022
:1002A000D0E0CE15DF0589F0D8016D918D01D60122
:1002B000ED91FC910190F081E02DC6011995892BFB
:1002C00011F47E0102C02196ECCFC701DF91CF91DE
:1002D0001F910F91FF90EF90DF90CF9008950895B8
:1002E00080E090E00895FC01538D448D252F30E08F
:1002F000842F90E0821B930B541710F0CF96089533
:1003000001970895FC01918D828D981761F0828D7F
:10031000DF01A80FB11D5D968C91928D9F5F9F7339
:10032000928F90E008958FEF9FEF0895FC01918DDB
:10033000828D981731F0828DE80FF11D858D90E048
:1003400008958FEF9FEF0895FC01918D228D892FE5
:1003500090E0805C9F4F821B91098F7399270895CD
:1003600089E892E0F1DF21E0892B09F420E0822F77
:100370000895FC01848DDF01A80FB11DA35ABF4F62
:100380002C91848D90E001968F739927848FA68994
:10039000B7892C93A089B1898C9180648C93938DBB
:1003A000848D981306C00288F389E02D80818F7DAB
:1003B00080830895EF92FF920F931F93CF93DF9363
:1003C000EC0181E0888F9B8D8C8D981305C0E889A6
:1003D000F989808185FD23C0F62E0B8D10E00F5F1B
:1003E0001F4F0F731127E02E8C8DE8120BC00FB634
:1003F00007FCFACFE889F989808185FFF5CFCE0126
:10040000B8DFF2CF8B8DFE01E80FF11DE35AFF4FED
:10041000F0820B8FEA89FB898081806207C0EE89B8
:10042000FF896083E889F98980818064808381E025
:1004300090E0DF91CF911F910F91FF90EF90089581
:10044000CF93DF93EC01888D8823C1F0EA89FB8983
:10045000808185FD05C0A889B9898C9186FD0EC073
:100460000FB607FCF5CF808185FFF2CFA889B98947
:100470008C9185FFEDCFCE017CDFE8CFDF91CF916E
:10048000089580E090E0892B19F06ADF811125C082
:1004900080E090E0892B41F080E090E0892B21F012
:1004A0000E94000081111CC080E090E0892B41F087
:1004B00080E090E0892B21F00E940000811113C0A0
:1004C00080E090E0892BA1F080E090E0892B81F022
:1004D0000E94000081110AC008950E940000D8CF38
:1004E0000E940000E1CF0E940000EACF0C940000BF
:1004F000089590E0FC013197E231F10508F04DC01C
:100500008827EE58FF4F8F4F24C5809180008F774A
:1005100003C0809180008F7D80938000089580913A
:100520008000877FF9CF84B58F7702C084B58F7D37
:1005300084BD08958091B0008F7703C08091B00092
:100540008F7D8093B0000895809190008F7707C0D1
:10055000809190008F7D03C080919000877F809371
:10056000900008958091A0008F7707C08091A0002F
:100570008F7D03C08091A000877F8093A0000895A5
:10058000809120018F7707C0809120018F7D03C06B
:1005900080912001877F809320010895CF93DF937E
:1005A000282F30E0F901EE51FE4F8491F901E45615
:1005B000FE4FD491F901EA5AFE4FC491CC2389F041
:1005C000811197DFEC2FF0E0EE0FFF1FE45CFE4F90
:1005D000A591B491EC91ED2381E090E021F480E0CD
:1005E00002C080E090E0DF91CF9108951F93CF93F8
:1005F000DF93282F30E0F901EE51FE4F8491F9018D
:10060000E456FE4FD491F901EA5AFE4FC491CC232F
:10061000C1F0162F81116DDFEC2FF0E0EE0FFF1F00
:10062000EE5DFE4FA591B4918FB7F894111105C0FE
:100630009C91ED2FE095E92302C0EC91ED2BEC931A
:100640008FBFDF91CF911F910895CF93DF9390E0FB
:10065000FC01E456FE4F2491FC01EA5AFE4F8491BE
:10066000882361F190E0880F991FFC01E85FFE4F3D
:10067000C591D491FC01EE5DFE4FA591B49161113D
:1006800009C09FB7F8948881209582238883EC91D4
:100690002E230BC0623061F49FB7F8943881822F0B
:1006A000809583238883EC912E2B2C939FBF06C0CB
:1006B0008FB7F894E8812E2B28838FBFDF91CF91DD
:1006C00008953FB7F89480914D0290914E02A09109
:1006D0004F02B091500226B5A89B05C02F3F19F0DC
:1006E0000196A11DB11D3FBFBA2FA92F982F8827B2
:1006F000820F911DA11DB11DBC01CD0142E0660F0D
:10070000771F881F991F4A95D1F708958F929F925E
:10071000AF92BF92CF92DF92EF92FF926B017C017A
:10072000D0DF4B015C01C114D104E104F104E9F014
:10073000C8DFDC01CB0188199909AA09BB09883EE9
:100740009340A105B10578F321E0C21AD108E10870
:10075000F10888EE880E83E0981EA11CB11CC1141C
:10076000D104E104F10421F7DECFFF90EF90DF9098
:10077000CF90BF90AF909F908F900895009761F0B9
:10078000FC0101900020E9F73197AF01481B590B9C
:10079000BC0189E892E078CD80E090E00895E1D353
:1007A0001F93CF93DF93C2E1D2E01881229661E0DC
:1007B000812F4BDF60E0812F19DF82E0CC31D80739
:1007C000A1F7DF91CF911F9108958F929F92AF92E1
:1007D000BF92CF92DF92EF92FF92CF93DF93CDB78C
:1007E000DEB7A1970FB6F894DEBF0FBECDBF6C0188
:1007F000990FEE08FF08F7FE2AC0E0918902F091F8
:100800008A020190F081E02D6DE289E892E019956D
:1008100022273327A9012C193D094E095F0919A286
:10082000CE0181967C019AE0892E912CA12CB12CCD
:10083000CA01B901A50194014ED3605DF70162932D
:100840007F01211531054105510591F719C0A70117
:10085000960119A2CE0181967C018AE0882E912C06
:10086000A12CB12CCA01B901A501940134D3605D5A
:10087000F70162937F01211531054105510591F77B
:10088000C7017CDF82E492E079DFA1960FB6F8948D
:10089000DEBF0FBECDBFDF91CF91FF90EF90DF9015
:1008A000CF90BF90AF909F908F9008951F920F921E
:1008B0000FB60F9211240BB60F922F933F934F93C5
:1008C0005F936F937F938F939F93AF93BF93EF93B8
:1008D000FF9389E892E04DDDFF91EF91BF91AF91D9
:1008E0009F918F917F916F915F914F913F912F9148
:1008F0000F900BBE0F900FBE0F901F9018951F9278
:100900000F920FB60F9211240BB60F922F938F9365
:100910009F93EF93FF93E0919902F0919A02808167
:10092000E0919F02F091A00282FD12C0908180911F
:10093000A2028F5F8F732091A302821751F0E09182
:10094000A202F0E0E757FD4F958F8093A20201C00D
:100950008081FF91EF919F918F912F910F900BBE0E
:100960000F900FBE0F901F9018951F920F920FB609
:100970000F9211242F933F938F939F93AF93BF9325
:100980008091490290914A02A0914B02B0914C0291
:100990003091480223E0230F2D3720F40196A11D4A
:1009A000B11D05C026E8230F0296A11DB11D20939D
:1009B00048028093490290934A02A0934B02B0935D
:1009C0004C0280914D0290914E02A0914F02B09145
:1009D00050020196A11DB11D80934D0290934E02CD
:1009E000A0934F02B0935002BF91AF919F918F910E
:1009F0003F912F910F900FBE0F901F901895CF929F
:100A0000DF92EF92FF920F931F93E82FF92F05C00B
:100A1000015011092109310961F190819623941740
:100A2000B9F305C0015011092109310911F1908173
:100A300096239413F7CFC12CD12CE12CF12C0AC0B2
:100A40008FEFC81AD80AE80AF80A0C151D052E05FA
:100A50003F0579F080818623841791F36C2D7D2DDD
:100A60008E2D9F2D1F910F91FF90EF90DF90CF90D3
:100A7000089560E070E080E090E01F910F91FF909A
:100A8000EF90DF90CF900895789484B5826084BD14
:100A900084B5816084BD85B5826085BD85B5816082
:100AA00085BD80916E00816080936E001092810000
:100AB00080918100826080938100809181008160BB
:100AC000809381008091800081608093800080917C
:100AD000B10084608093B1008091B0008160809308
:100AE000B00080919100826080939100809191008C
:100AF000816080939100809190008160809390004C
:100B00008091A10082608093A1008091A10081600A
:100B10008093A1008091A00081608093A0008091CB
:100B20002101826080932101809121018160809365
:100B300021018091200181608093200180917A00C1
:100B4000846080937A0080917A00826080937A003A
:100B500080917A00816080937A0080917A00806829
:100B600080937A001092C100E0919902F0919A026C
:100B700082E08083E0919502F09196021082E091EC
:100B80009702F09198028FEC80831092A102E0917D
:100B90009D02F0919E0286E08083E0919B02F0919D
:100BA0009C02808180618083E0919B02F0919C0295
:100BB000808188608083E0919B02F0919C0280811B
:100BC00080688083E0919B02F0919C0280818F7D00
:100BD000808301E512E0C2E1D2E07E01F8011192CA
:100BE00011928F01F7018081F2E0EF0EF11C61E0BC
:100BF0002CDD82E00B35180789F761E087E025DD01
:100C000006E312E0F80180810E5F1F4F60E01DDDFA
:100C1000F2E002341F07B1F760E082E016DD60E029
:100C200083E013DD60E084E010DD61E087E00DDD4E
:100C300061E087E0DBDC6CE271E080E090E066DDA3
:100C40001881229661E0812F00DD61E0812FCEDCEA
:100C50006CE271E080E090E059DD82E0CC31D807B1
:100C600079F761E087E0F1DC60E087E0BFDC98DDE8
:100C700063E0C62ED12C7FE0E72EF12CE4EA2E2E85
:100C8000E1E03E2EFAE38F2E912CA12CB12CCDE782
:100C9000D2E08E0156E3652E52E0752EF30180817D
:100CA000F2E06F0E711C7ADCF801819391938F0151
:100CB0008CDDF2E46F16F2E07F0681F74EE2642EDF
:100CC00042E0742E05E712E0F3018081F2E06F0E3E
:100CD000711C863308F0865390917B00282F287072
:100CE000977F922B90937B008770806480937C0029
:100CF00080917A00806480937A0080917A0086FDEA
:100D0000FCCF809178002091790090E0922BF8013F
:100D1000819391938F0159DDF6E36F16F2E07F0620
:100D200099F638E2632E32E0732E0FE612E0F301FB
:100D30008081F2E06F0E711C31DCF8018193919398
:100D40008F0143DDFEE26F16F2E07F0681F72CE1B2
:100D5000622E22E0722E03E612E0F3018081F2E0BF
:100D60006F0E711C1BDCF801819391938F012DDDB7
:100D7000F6E26F16F2E07F0681F761E088E065DC5D
:100D800060E088E033DCC6010197F1F761E088E0BC
:100D90002DDCC7010197F1F760E088E027DC60E017
:100DA00088E053DCF1016491EEE5F1E0E491F0E0DC
:100DB000EE0FFF1FE45CFE4F8591949100E412E476
:100DC0002FE030E0462F1BDE61157105810591058E
:100DD00049F0DC01CB010196A11DB11DBC01CD0183
:100DE0009F7003C060E070E0CB01A501940195D035
:100DF00020935F023093600240936102509362023D
:100E000088E0CCDB90935C0280935B02DEDC89E0BF
:100E1000C5DB90935E0280935D02D7DC84E492E0B0
:100E2000ADDC61E087E011DC61E087E0DFDB80E0E2
:100E300090E0299139912130310529F001968630D1
:100E40009105B9F701C02C01ABDC80917102909142
:100E50007202019761F4F201EE0FFF1FEE5EFD4F8B
:100E6000C08161E08C2FF1DB61E08C2FBFDB64E19E
:100E700070E080E090E04ADC04DB09CFE9E8F2E0D2
:100E80001382128288EE93E0A0E0B0E08483958321
:100E9000A683B78384E092E09183808385EC90E021
:100EA0009587848784EC90E09787868780EC90E034
:100EB000918B808B81EC90E0938B828B82EC90E025
:100EC000958B848B86EC90E0978B868B118E128E9F
:100ED000138E148E0895A1E21A2EAA1BBB1BFD01CE
:100EE0000DC0AA1FBB1FEE1FFF1FA217B307E40709
:100EF000F50720F0A21BB30BE40BF50B661F771F61
:100F0000881F991F1A9469F7609570958095909540
:100F10009B01AC01BD01CF010895052E97FB16F48E
:100F200000940FD057FD05D0D6DF07FC02D046F461
:100F300008C050954095309521953F4F4F4F5F4FDA
:100F4000089590958095709561957F4F8F4F9F4F35
:100F50000895EE0FFF1F881F8BBF0790F691E02DBD
:0E0F6000199481E090E0F89400C0F894FFCF5F
:100F6E0000000000DA01440173012002A401820195
:100F7E0096010500060009000A000B000A000B008E
:100F8E000C000D000E000F00020003000400000014
:100F9E000100020003002800320030002E002C0059
:080FAE002A002C000D0A0000CE
:00000001FF
