:1000000026C1000052C1000050C100004EC10000D6
:100010004CC100004AC1000048C1000046C10000B8
:1000200044C1000042C1000040C100003EC10000C8
:100030003CC100003AC1000038C1000036C10000D8
:1000400034C1000032C1000030C100002EC10000E8
:100050002CC100002AC1000028C1000002C5000018
:1000600024C10000C8C400009DC400001EC10000DF
:100070001CC100001AC1000018C1000016C1000018
:1000800014C1000012C1000010C100000EC1000028
:100090000CC100000AC1000008C1000006C1000038
:1000A00004C1000002C1000000C10000FEC0000049
:1000B000FCC00000FAC00000F8C00000F6C000005C
:1000C000F4C00000F2C00000F0C00000EEC000006C
:1000D000ECC00000EAC00000E8C00000E6C000007C
:1000E000E4C00000A502A80297029B02A102DF0261
:1000F000AC02B002B602BA02BE02C402C802CC020E
:10010000DF02D202D602DA0299039E03A303AD03F3
:10011000B7033004C103C903D103DB03E503EF03D5
:10012000FE030804300412041C042604000021000D
:10013000240027002A002D003000330001010000B8
:10014000040107010A0100002200250028002B00FD
:100150002E003100340002010000050108010B01EE
:10016000000020002300260029002C002F00320070
:100170000001000003010601090105050505070549
:1001800008080808020202020A0A08080404040413
:10019000010101010101010103030303030303033F
:1001A000040707070C0C0C0C0C0C0C0C02020202CE
:1001B00006060606060606060B0B0B0B0B0B0B0BB7
:1001C0000102102020080810204010204080020169
:1001D000020108040201010204081020408080404E
:1001E000201008040201800402018040201008044D
:1001F00002010804020101020408102040800102EB
:1002000004081020408000000A0B02090C0D0E08A3
:1002100007030401000000000000000000000000CF
:1002200000000000000000000000000000000000CE
:10023000000012111000000000000000000000008B
:10024000000000000000000000000000E30711248F
:100250001FBECFEFD1E2DEBFCDBF00E00CBF12E08A
:10026000A0E0B2E0ECE3F0E100E00BBF02C00790D9
:100270000D92AC35B107D9F723E0ACE5B2E001C08F
:100280001D92A436B207E1F711E0C7E2D1E000E029
:1002900005C021970109802FFE01C2D6C632D107C1
:1002A00080E00807B1F727D4C7C6AACECF92DF9265
:1002B000EF92FF920F931F93CF93DF936C017A011C
:1002C0008B01C0E0D0E0CE15DF0589F0D8016D913B
:1002D0008D01D601ED91FC910190F081E02DC601D8
:1002E0001995892B11F47E0102C02196ECCFC7012C
:1002F000DF91CF911F910F91FF90EF90DF90CF9002
:100300000895089580E090E00895FC01538D448D98
:10031000252F30E0842F90E0821B930B541710F0B0
:10032000CF96089501970895FC01918D828D9817BD
:1003300061F0828DDF01A80FB11D5D968C91928DC9
:100340009F5F9F73928F90E008958FEF9FEF0895C6
:10035000FC01918D828D981731F0828DE80FF11D8F
:10036000858D90E008958FEF9FEF0895FC01918DAA
:10037000228D892F90E0805C9F4F821B91098F73A3
:100380009927089585E692E0F1DF21E0892B09F4B1
:1003900020E0822F0895FC01848DDF01A80FB11D9C
:1003A000A35ABF4F2C91848D90E001968F739927AB
:1003B000848FA689B7892C93A089B1898C91806498
:1003C0008C93938D848D981306C00288F389E02D59
:1003D00080818F7D80830895EF92FF920F931F930A
:1003E000CF93DF93EC0181E0888F9B8D8C8D9813E8
:1003F00005C0E889F989808185FD23C0F62E0B8D23
:1004000010E00F5F1F4F0F731127E02E8C8DE81245
:100410000BC00FB607FCFACFE889F989808185FF08
:10042000F5CFCE01B8DFF2CF8B8DFE01E80FF11DC5
:10043000E35AFF4FF0820B8FEA89FB89808180624B
:1004400007C0EE89FF896083E889F989808180642B
:10045000808381E090E0DF91CF911F910F91FF9019
:10046000EF900895CF93DF93EC01888D8823C1F03E
:10047000EA89FB89808185FD05C0A889B9898C91AD
:1004800086FD0EC00FB607FCF5CF808185FFF2CF49
:10049000A889B9898C9185FFEDCFCE017CDFE8CFAB
:1004A000DF91CF91089580E090E0892B19F06ADF09
:1004B000811125C080E090E0892B41F080E090E040
:1004C000892B21F00E94000081111CC080E090E087
:1004D000892B41F080E090E0892B21F00E94000000
:1004E000811113C080E090E0892BA1F080E090E0C2
:1004F000892B81F00E94000081110AC008950E949A
:100500000000D8CF0E940000E1CF0E940000EACF97
:100510000C940000089590E0FC013197E231F10560
:1005200008F04DC08827EE58FF4F8F4F79C5809156
:1005300080008F7703C0809180008F7D8093800042
:10054000089580918000877FF9CF84B58F7702C0AE
:1005500084B58F7D84BD08958091B0008F7703C0EE
:100560008091B0008F7D8093B000089580919000BD
:100570008F7707C0809190008F7D03C0809190009D
:10058000877F8093900008958091A0008F7707C0A7
:100590008091A0008F7D03C08091A000877F809311
:1005A000A0000895809120018F7707C080912001DD
:1005B0008F7D03C080912001877F80932001089563
:1005C000CF93DF93282F30E0F901EA5FFD4F84914C
:1005D000F901E054FE4FD491F901E658FE4FC49161
:1005E000CC2389F0811197DFEC2FF0E0EE0FFF1F95
:1005F000E05AFE4FA591B491EC91ED2381E090E09B
:1006000021F480E002C080E090E0DF91CF91089576
:100610001F93CF93DF93282F30E0F901EA5FFD4F5E
:100620008491F901E054FE4FD491F901E658FE4F50
:10063000C491CC23C1F0162F81116DDFEC2FF0E0B7
:10064000EE0FFF1FEA5BFE4FA591B4918FB7F894B0
:10065000111105C09C91ED2FE095E92302C0EC91AA
:10066000ED2BEC938FBFDF91CF911F910895CF9326
:10067000DF9390E0FC01E054FE4F2491FC01E6582A
:10068000FE4F8491882361F190E0880F991FFC014F
:10069000E45DFE4FC591D491FC01EA5BFE4FA5914C
:1006A000B491611109C09FB7F89488812095822385
:1006B0008883EC912E230BC0623061F49FB7F894CD
:1006C0003881822F809583238883EC912E2B2C9365
:1006D0009FBF06C08FB7F894E8812E2B28838FBF69
:1006E000DF91CF9108951F93CF93DF93182FEB01E4
:1006F00061E0BDDF209711F460E004C0CF3FD10579
:1007000031F461E0812FDF91CF911F9181CFE12FF3
:10071000F0E0EA5FFD4FE4914E2F50E0FA0131978F
:10072000E231F10508F09CC08827EC57FF4F8F4F4E
:1007300077C484B5806884BDC7BD97C084B5806226
:1007400084BDC8BD92C08091800080688093800085
:10075000D0938900C093880088C080918000806217
:1007600080938000D0938B00C0938A007EC08091DC
:100770008000886080938000D0938D00C0938C00AF
:1007800074C08091B00080688093B000C093B300C3
:100790006CC08091B00080628093B000C093B400C0
:1007A00064C080919000806880939000D0939900FD
:1007B000C09398005AC0809190008062809390000E
:1007C000D0939B00C0939A0050C0809190008860A5
:1007D00080939000D0939D00C0939C0046C0809170
:1007E000A00080688093A0008091A0008F7B809300
:1007F000A000D093A900C093A80037C08091A000AA
:1008000080628093A000D093AB00C093AA002DC05B
:100810008091A00088608093A000D093AD00C09329
:10082000AC0023C080912001806880932001D09388
:100830002901C093280119C0809120018062809312
:100840002001D0932B01C0932A010FC08091200179
:10085000886080932001D0932D01C0932C0105C0A6
:10086000C038D1050CF04DCF47CFDF91CF911F910C
:100870000895863308F0865390917B00282F2870C6
:10088000977F922B90937B008770806480937C008D
:1008900080917A00806480937A0080917A0086FD4E
:1008A000FCCF809178002091790090E0922B089500
:1008B0003FB7F8948091610290916202A091630227
:1008C000B091640226B5A89B05C02F3F19F0019690
:1008D000A11DB11D3FBFBA2FA92F982F8827820FC6
:1008E000911DA11DB11DBC01CD0142E0660F771F16
:1008F000881F991F4A95D1F708958F929F92AF92C2
:10090000BF92CF92DF92EF92FF926B017C01D0DF1A
:100910004B015C01C114D104E104F104E9F0C8DF2A
:10092000DC01CB0188199909AA09BB09883E9340CB
:10093000A105B10578F321E0C21AD108E108F10858
:1009400088EE880E83E0981EA11CB11CC114D1044E
:10095000E104F10421F7DECFFF90EF90DF90CF901C
:10096000BF90AF909F908F9008952FB7F8946091AB
:100970005D0270915E0280915F02909160022FBFD4
:100980000895CF93DF93C4E1D2E08881229660E09E
:1009900070E0A9DE82E0C032D807B9F7DF91CF91CD
:1009A000089546D31F920F920FB60F9211240BB6E3
:1009B0000F922F933F934F935F936F937F938F93F8
:1009C0009F93AF93BF93EF93FF9385E692E0E3DCB1
:1009D000FF91EF91BF91AF919F918F917F916F9117
:1009E0005F914F913F912F910F900BBE0F900FBED3
:1009F0000F901F9018951F920F920FB60F9211240F
:100A00000BB60F922F938F939F93EF93FF93E091E9
:100A10007502F09176028081E0917B02F0917C0278
:100A200082FD12C0908180917E028F5F8F73209132
:100A30007F02821751F0E0917E02F0E0EB59FD4F0A
:100A4000958F80937E0201C08081FF91EF919F91ED
:100A50008F912F910F900BBE0F900FBE0F901F9094
:100A600018951F920F920FB60F9211242F933F9358
:100A70008F939F93AF93BF9380915D0290915E029D
:100A8000A0915F02B091600230915C0223E0230FDD
:100A90002D3720F40196A11DB11D05C026E8230FB6
:100AA0000296A11DB11D20935C0280935D0290937C
:100AB0005E02A0935F02B093600280916102909108
:100AC0006202A0916302B09164020196A11DB11D62
:100AD0008093610290936202A0936302B0936402D8
:100AE000BF91AF919F918F913F912F910F900FBE2A
:100AF0000F901F901895789484B5826084BD84B55A
:100B0000816084BD85B5826085BD85B5816085BD08
:100B100080916E00816080936E00109281008091C0
:100B20008100826080938100809181008160809348
:100B30008100809180008160809380008091B1006D
:100B400084608093B1008091B00081608093B00098
:100B500080919100826080939100809191008160EA
:100B600080939100809190008160809390008091AB
:100B7000A10082608093A1008091A1008160809398
:100B8000A1008091A00081608093A000809121014C
:100B900082608093210180912101816080932101F5
:100BA0008091200181608093200180917A0084608F
:100BB00080937A0080917A00826080937A0080919D
:100BC0007A00816080937A0080917A0080688093B7
:100BD0007A001092C100E0917502F091760282E0F5
:100BE0008083E0917102F09172021082E0917302B1
:100BF000F09174028FEC808310927D02E091790273
:100C0000F0917A0286E08083E0917702F091780299
:100C1000808180618083E0917702F0917802808109
:100C200088608083E0917702F0917802808180680B
:100C30008083E0917702F091780280818F7D8083BC
:100C400094DE6093040370930503809306039093EE
:100C5000070361E08CE00BDD61E08DE008DD61E021
:100C60008AE105DD60E08AE102DD60E086E1FFDC2B
:100C700061E086E1CDDC60E088E1F9DC61E088E1FB
:100C8000C7DC61E087E2F3DC60E089E2F0DCC0E031
:100C9000D0E000E010E0C630D10554F4F801E05C8B
:100CA000FD4F60E08081E3DC21960E5F1F4FF3CFA4
:100CB0000AE413E0C4E1D2E07E01F801119211923E
:100CC0008F01F7018081F2E0EF0EF11C61E0CFDCD3
:100CD00023E00635120789F704E312E0F80180816A
:100CE0000E5F1F4F60E0C3DCF2E000341F07B1F776
:100CF00060E080E2BCDC60E08EE1B9DC60E08CE1C9
:100D0000B6DC61E087E0B3DC60E084E3B0DC60E0A7
:100D100082E3ADDC60E080E3AADC60E08EE2A7DC89
:100D20006FEF70E087E0DFDC6CE271E080E090E084
:100D3000E4DD888122966FEF70E0D5DC6CE271E033
:100D400080E090E0DADD22E0C032D20791F760E087
:100D500070E087E0C8DC15DECCE4D2E008E513E003
:100D60008881229686DDF801819391938F01F2E0CC
:100D7000C635DF07A9F78AE123DC909357038093F8
:100D8000560320914A0330914B03609154037091B4
:100D90005503620F731F7093550360935403409182
:100DA000480350914903420F531F50934903409306
:100DB0004803E0910002F09101022E0F3F1F309393
:100DC0004B0320934A03215031092E3F310538F05F
:100DD000F195E195F109F0930102E0930002892B6E
:100DE00011F48DE002C0BA018CE07DDC89E2E8DB21
:100DF0009093470380934603019741F461E087E2B3
:100E000007DCC0E4D2E00AE313E002C060E0F7CF01
:100E100088812296D5DBF801819391938F01F2E0CE
:100E2000CC34DF07A9F788E3CBDB909337038093BB
:100E3000360389E3C5DB909339038093380380E25E
:100E4000BFDB90933103809330038EE1B9DB909345
:100E50003303809332038CE1B3DB909335038093AB
:100E6000340304E213E0C4E3D2E088812296A8DBD5
:100E7000F801819391938F01F2E0C034DF07A9F765
:100E800086E39EDB909321038093200387E398DB26
:100E90009093230380932203C8E2D2E004E113E09D
:100EA000888122968DDBF801819391938F01F2E086
:100EB000C433DF07A9F7C0E2D2E00CE013E0888179
:100EC00022967EDBF801819391938F01F2E0C83284
:100ED000DF07A9F78EE3CDDC909309038093080325
:100EE0008FE3C7DC90930B0380930A036FEF70E0EE
:100EF00087E0F9DB3ADD00910403109105032091AE
:100F0000060330910703601771078207930748F4BF
:100F10002CDD609304037093050380930603909384
:100F2000070323DD009104031091050320910603BC
:100F300030910703DC01CB01801B910BA20BB30B9B
:100F400081319140A105B10580F11BDD8091020343
:100F5000909103030196863091052CF4909303033E
:100F60008093020304C01092030310920203809145
:100F7000020390910303880F991FFC01EC5DFC4F65
:100F8000208131812130310539F4FC01EC5EFD4FC7
:100F90006FEF70E08081A7DBE8DC6093040370935F
:100FA0000503809306039093070342E050E068E551
:100FB00072E085E692E07AD964E170E080E090E04A
:100FC0009CDC71DAC9CEE5E6F2E01382128288EE8B
:100FD00093E0A0E0B0E084839583A683B78386E0A6
:100FE00092E09183808385EC90E09587848784EC00
:100FF00090E09787868780EC90E0918B808B81ECE6
:1010000090E0938B828B82EC90E0958B848B86ECC6
:1010100090E0978B868B118E128E138E148E08950E
:10102000EE0FFF1F881F8BBF0790F691E02D1994DC
:0C10300081E090E0F89400C0F894FFCF3D
:10103C00050000000000EC01560185013202B601EA
:10104C009401A80104000500060009000A000B0029
:10105C003400320030002E002C002A00280026001C
:10106C0024002200170019001B001D001F00210086
:10107C003500330031002F002D002B0040004100C3
:0C108C0042004300440045000D0A000033
:00000001FF
