:1000000014C1000040C100003EC100003CC100001E
:100010003AC1000038C1000036C1000034C1000000
:1000200032C1000030C100002EC100002CC1000010
:100030002AC1000028C1000026C1000024C1000020
:1000400022C1000020C100001EC100001CC1000030
:100050001AC1000018C1000016C10000D6C400007B
:1000600012C100009CC4000071C400000CC100005B
:100070000AC1000008C1000006C1000004C1000060
:1000800002C1000000C10000FEC00000FCC0000072
:10009000FAC00000F8C00000F6C00000F4C0000084
:1000A000F2C00000F0C00000EEC00000ECC0000094
:1000B000EAC00000E8C00000E6C00000E4C00000A4
:1000C000E2C00000E0C00000DEC00000DCC00000B4
:1000D000DAC00000D8C00000D6C00000D4C00000C4
:1000E000D2C0000093029602850289028F02CD02DF
:1000F0009A029E02A402A802AC02B202B602BA029E
:10010000CD02C002C402C802000021002400270062
:100110002A002D0030003300010100000401070116
:100120000A0100002200250028002B002E003100CB
:10013000340002010000050108010B01000020004D
:100140002300260029002C002F00320000010000AF
:10015000030106010901050505050705080808084A
:10016000020202020A0A080804040404010101014F
:10017000010101010303030303030303040707074A
:100180000C0C0C0C0C0C0C0C0202020206060606EF
:10019000060606060B0B0B0B0B0B0B0B01021020BC
:1001A00020080810204010204080020102010804AD
:1001B0000201010204081020408080402010080441
:1001C000020180040201804020100804020108049A
:1001D00002010102040810204080010204081020DE
:1001E000408000000A0B02090C0D0E0807030401F1
:1001F00000000000000000000000000000000000FF
:1002000000000000000000000000000000001211CB
:1002100010000000000000000000000000000000CE
:100220000000000000000000D00611241FBECFEF28
:10023000D1E2DEBFCDBF00E00CBF12E0A0E0B2E033
:10024000EAE5FEE000E00BBF02C007900D92AC3380
:10025000B107D9F722E0ACE3B2E001C01D92A13FA3
:10026000B207E1F711E0C5E1D1E000E005C0219758
:100270000109802FFE01E3D5C431D10780E00807D2
:10028000B1F70DD4E8C5BCCECF92DF92EF92FF92CA
:100290000F931F93CF93DF936C017A018B01C0E022
:1002A000D0E0CE15DF0589F0D8016D918D01D60122
:1002B000ED91FC910190F081E02DC6011995892BFB
:1002C00011F47E0102C02196ECCFC701DF91CF91DE
:1002D0001F910F91FF90EF90DF90CF9008950895B8
:1002E00080E090E00895FC01538D448D252F30E08F
:1002F000842F90E0821B930B541710F0CF96089533
:1003000001970895FC01918D828D981761F0828D7F
:10031000DF01A80FB11D5D968C91928D9F5F9F7339
:10032000928F90E008958FEF9FEF0895FC01918DDB
:10033000828D981731F0828DE80FF11D858D90E048
:1003400008958FEF9FEF0895FC01918D228D892FE5
:1003500090E0805C9F4F821B91098F7399270895CD
:1003600084E592E0F1DF21E0892B09F420E0822F7F
:100370000895FC01848DDF01A80FB11DA35ABF4F62
:100380002C91848D90E001968F739927848FA68994
:10039000B7892C93A089B1898C9180648C93938DBB
:1003A000848D981306C00288F389E02D80818F7DAB
:1003B00080830895EF92FF920F931F93CF93DF9363
:1003C000EC0181E0888F9B8D8C8D981305C0E889A6
:1003D000F989808185FD23C0F62E0B8D10E00F5F1B
:1003E0001F4F0F731127E02E8C8DE8120BC00FB634
:1003F00007FCFACFE889F989808185FFF5CFCE0126
:10040000B8DFF2CF8B8DFE01E80FF11DE35AFF4FED
:10041000F0820B8FEA89FB898081806207C0EE89B8
:10042000FF896083E889F98980818064808381E025
:1004300090E0DF91CF911F910F91FF90EF90089581
:10044000CF93DF93EC01888D8823C1F0EA89FB8983
:10045000808185FD05C0A889B9898C9186FD0EC073
:100460000FB607FCF5CF808185FFF2CFA889B98947
:100470008C9185FFEDCFCE017CDFE8CFDF91CF916E
:10048000089580E090E0892B19F06ADF811125C082
:1004900080E090E0892B41F080E090E0892B21F012
:1004A0000E94000081111CC080E090E0892B41F087
:1004B00080E090E0892B21F00E940000811113C0A0
:1004C00080E090E0892BA1F080E090E0892B81F022
:1004D0000E94000081110AC008950E940000D8CF38
:1004E0000E940000E1CF0E940000EACF0C940000BF
:1004F000089590E0FC013197E231F10508F04DC01C
:100500008827EE58FF4F8F4F9AC4809180008F77D5
:1005100003C0809180008F7D80938000089580913A
:100520008000877FF9CF84B58F7702C084B58F7D37
:1005300084BD08958091B0008F7703C08091B00092
:100540008F7D8093B0000895809190008F7707C0D1
:10055000809190008F7D03C080919000877F809371
:10056000900008958091A0008F7707C08091A0002F
:100570008F7D03C08091A000877F8093A0000895A5
:10058000809120018F7707C0809120018F7D03C06B
:1005900080912001877F809320010895CF93DF937E
:1005A000282F30E0F901EE51FE4F8491F901E45615
:1005B000FE4FD491F901EA5AFE4FC491CC2389F041
:1005C000811197DFEC2FF0E0EE0FFF1FE45CFE4F90
:1005D000A591B491EC91ED2381E090E021F480E0CD
:1005E00002C080E090E0DF91CF9108951F93CF93F8
:1005F000DF93282F30E0F901EE51FE4F8491F9018D
:10060000E456FE4FD491F901EA5AFE4FC491CC232F
:10061000C1F0162F81116DDFEC2FF0E0EE0FFF1F00
:10062000EE5DFE4FA591B4918FB7F894111105C0FE
:100630009C91ED2FE095E92302C0EC91ED2BEC931A
:100640008FBFDF91CF911F9108952FB7F8946091DC
:1006500041027091420280914302909144022FBF67
:100660000895AC019C013327F901E456FE4F9491A3
:10067000F901EA5AFE4F2491222399F030E0220F2B
:10068000331FF901E85FFE4FA591B491F901EE5DCA
:10069000FE4F259134918FB7F894EC91E92BEC93B0
:1006A0008FBF60E0842FA2CFCF93DF939C013327CD
:1006B000F901E456FE4F4491F901EA5AFE4F2491A4
:1006C0002223C1F030E0220F331FF901E85FFE4F13
:1006D000C591D491F901EE5DFE4FA591B4913FB75C
:1006E000F8942881E42FE0952E2328832C91E2238F
:1006F000EC933FBF61E0DF91CF9178CF0F931F93D1
:10070000CF93DF9388E190E0CFDF86E190E0CCDF0C
:1007100083EC90E00197F1F788E140DF0197E1F386
:100720008FE090E00197F1F788E138DF892BE1F362
:1007300008E010E0D1E0C0E088E130DF0197E1F3AC
:1007400086E12CDF019709F4CD2B88E127DF892B87
:10075000E1F3DD0F0150110979F788E11FDF0197FF
:10076000E1F388E11BDF892BE1F388E117DF0197D3
:10077000E1F388E113DF892BE1F388E190E071DF99
:100780008C2FDF91CF911F910F910895EF92FF92DF
:100790001F93CF93DF93182F86E190E085DF88E1E8
:1007A00090E082DFCBEAD4E0CE010197F1F788E157
:1007B00090E057DF2197F1F786E190E052DF83E286
:1007C00090E00197F1F788E190E06EDF88E1E6DEE6
:1007D0000197E1F388E0E82EF12CC1E0D12FD17030
:1007E00086E190E010FF02C05FDF01C03ADF88E1E0
:1007F000D5DE892BE1F388E1D1DE0197E1F3CD2746
:10080000169581E0E81AF10849F786E190E0CC23DB
:1008100011F04ADF01C025DF88E1C0DE892BE1F35A
:1008200088E1BCDE0197E1F386E190E03DDF83ECF7
:1008300090E00197F1F788E1B1DE0197E1F388E1FB
:10084000ADDE892BE1F386E1A9DE892BC1F388E1D6
:1008500090E0DF91CF911F91FF90EF9002CF009732
:1008600061F0FC0101900020E9F73197AF01481BCE
:10087000590BBC0184E592E007CD80E090E008953B
:100880008F929F92AF92BF920F931F93CF93DF935C
:10089000CDB7DEB7A1970FB6F894DEBF0FBECDBFC0
:1008A00019A2423008F44AE08E010F5D1F4F842EDA
:1008B000912CA12CB12CA50194019FD2E62FB90156
:1008C000CA0101501109EA3014F4E05D01C0E95C8D
:1008D000D801EC93232B242B252B69F7C801BFDF0C
:1008E000A1960FB6F894DEBF0FBECDBFDF91CF91BA
:1008F0001F910F91BF90AF909F908F900895CF92CE
:10090000DF92EF92FF92CF93DF936B017C01E09136
:100910005402F09155020190F081E02D6DE284E5E2
:1009200092E01995EC0166277727CB016C197D09B8
:100930008E099F094AE0A4DF8C0F9D1FDF91CF91A4
:10094000FF90EF90DF90CF90089581D21F920F9289
:100950000FB60F9211240BB60F922F933F934F9324
:100960005F936F937F938F939F93AF93BF93EF9317
:10097000FF9384E592E0FDDCFF91EF91BF91AF9191
:100980009F918F917F916F915F914F913F912F91A7
:100990000F900BBE0F900FBE0F901F9018951F92D7
:1009A0000F920FB60F9211240BB60F922F938F93C5
:1009B0009F93EF93FF93E0916402F0916502808131
:1009C000E0916A02F0916B0282FD12C090818091E9
:1009D0006D028F5F8F7320916E02821751F0E0914C
:1009E0006D02F0E0EC5AFD4F958F80936D0201C0CF
:1009F0008081FF91EF919F918F912F910F900BBE6E
:100A00000F900FBE0F901F9018951F920F920FB668
:100A10000F9211242F933F938F939F93AF93BF9384
:100A20008091410290914202A0914302B091440210
:100A30003091400223E0230F2D3720F40196A11DB1
:100A4000B11D05C026E8230F0296A11DB11D2093FC
:100A500040028093410290934202A0934302B093DC
:100A6000440280913C0290913D02A0913E02B091DF
:100A70003F020196A11DB11D80933C0290933D025F
:100A8000A0933E02B0933F02BF91AF919F918F918F
:100A90003F912F910F900FBE0F901F901895789453
:100AA00084B5826084BD84B5816084BD85B5826073
:100AB00085BD85B5816085BD80916E008160809324
:100AC0006E0010928100809181008260809381008D
:100AD000809181008160809381008091800081609D
:100AE000809380008091B10084608093B1008091F8
:100AF000B00081608093B00080919100826080930B
:100B0000910080919100816080939100809190008C
:100B10008160809390008091A10082608093A10009
:100B20008091A10081608093A1008091A0008160EC
:100B30008093A000809121018260809321018091A7
:100B40002101816080932101809120018160809347
:100B5000200180917A00846080937A0080917A00ED
:100B6000826080937A0080917A00816080937A001D
:100B700080917A00806880937A001092C10088E1A9
:100B800090E092DD86E190E08FDDE0916402F091EB
:100B9000650282E08083E0916002F0916102108240
:100BA000E0916202F091630280E1808310926C0216
:100BB000E0916802F091690286E08083E09166022C
:100BC000F0916702808180618083E0916602F091FC
:100BD0006702808188608083E0916602F0916702FD
:100BE000808180688083E0916602F0916702808155
:100BF0008F7D808382E192E032DE88E192E02FDE19
:100C00008FEFC4DD7BDD7ADD79DD80EFBFDD76DD62
:100C10008BE891E00197F1F78BE192E020DE88E12B
:100C200092E01DDE12DD60935002709351028093BA
:100C30005202909353021092490210924A0210926B
:100C40004B0210924C0210924502109246021092F2
:100C5000470210924802F9DC0091500210915102B3
:100C60002091520230915302601771078207930757
:100C700048F4EBDC6093500270935102809352026F
:100C800090935302E2DC00915002109151022091A6
:100C9000520230915302DC01CB01801B910BA20B5D
:100CA000B30B85369105A105B10508F441C08BEE63
:100CB0006DDD24DD23DD80934F0220DD80934E0225
:100CC0001DDD80934D0260914F02062E000C770BC4
:100CD000880B990B42E0D4DD87E292E0C0DD6091A1
:100CE0004E02062E000C770B880B990B97FF02C063
:100CF00006DE02C04AE0C4DD81E392E0B0DD60912F
:100D00004D02062E000C770B880B990B97FF02C043
:100D1000F6DD02C04AE0B4DD88E192E0A0DD95DCBA
:100D20006093500270935102809352029093530249
:100D300080914E02082E000C990BAA0BBB0B409120
:100D4000490250914A0260914B0270914C02840F0B
:100D5000951FA61FB71F8093490290934A02A09344
:100D60004B02B0934C0280914D02082E000C990B5F
:100D7000AA0BBB0B4091450250914602609147027D
:100D800070914802840F951FA61FB71F80934502DC
:100D900090934602A0934702B093480272DB5BCF68
:100DA000E4E5F2E01382128288EE93E0A0E0B0E086
:100DB00084839583A683B78384E092E091838083C4
:100DC00085EC90E09587848784EC90E09787868710
:100DD00080EC90E0918B808B81EC90E0938B828B08
:100DE00082EC90E0958B848B86EC90E0978B868BE1
:100DF000118E128E138E148E0895A1E21A2EAA1B44
:100E0000BB1BFD010DC0AA1FBB1FEE1FFF1FA217BA
:100E1000B307E407F50720F0A21BB30BE40BF50BB7
:100E2000661F771F881F991F1A9469F76095709540
:100E3000809590959B01AC01BD01CF010895EE0F07
:100E4000FF1F881F8BBF0790F691E02D199481E05A
:0A0E500090E0F89400C0F894FFCF82
:100E5A0000000000DA01440173012002A4018201AA
:100E6A0096015365747570000D0A004D6F757365B0
:100E7A00205265616479000964656C746120583D8B
:0C0E8A00000964656C746120593D000093
:00000001FF
