:1000000026C1000045C1000043C1000041C10000FD
:100010003FC100003DC100003BC1000039C10000EC
:1000200037C1000035C1000033C1000031C10000FC
:100030002FC100002DC100002BC1000029C100000C
:1000400027C1000025C1000023C1000021C100001C
:100050001FC100001DC100001BC10000FDC2000047
:1000600017C1000015C1000013C1000011C100003C
:100070000FC100000DC100000BC1000009C100004C
:1000800007C1000005C1000003C1000001C100005C
:10009000FFC00000FDC00000FBC00000F9C0000070
:1000A000F7C00000F5C00000F3C00000F1C0000080
:1000B000EFC00000EDC00000EBC00000E9C0000090
:1000C000E7C00000E5C00000E3C00000E1C00000A0
:1000D000DFC00000DDC00000DBC00000D9C00000B0
:1000E000D7C0000063016601550159015F019D0100
:1000F0006A016E01740178017C01820186018A0126
:100100009D019001940198012F02340239024302AB
:100110004D02C60257025F02670271027B0285022E
:1001200094029E02C602A802B202BC020000210094
:10013000240027002A002D003000330001010000B8
:10014000040107010A0100002200250028002B00FD
:100150002E003100340002010000050108010B01EE
:10016000000020002300260029002C002F00320070
:100170000001000003010601090105050505070549
:1001800008080808020202020A0A08080404040413
:10019000010101010101010103030303030303033F
:1001A000040707070C0C0C0C0C0C0C0C02020202CE
:1001B00006060606060606060B0B0B0B0B0B0B0BB7
:1001C0000102102020080810204010204080020169
:1001D000020108040201010204081020408080404E
:1001E000201008040201800402018040201008044D
:1001F00002010804020101020408102040800102EB
:1002000004081020408000000A0B02090C0D0E08A3
:1002100007030401000000000000000000000000CF
:1002200000000000000000000000000000000000CE
:10023000000012111000000000000000000000008B
:100240000000000000000000000000007603112400
:100250001FBECFEFD1E2DEBFCDBF00E00CBF22E07A
:10026000A0E0B2E001C01D92A134B207E1F711E0B5
:10027000C7E2D1E000E005C021970109802FFE010F
:100280005DD4C632D10780E00807B1F774D25EC4EE
:10029000B7CE90E0FC013197E231F10508F04DC096
:1002A0008827EE58FF4F8F4F49C4809180008F7789
:1002B00003C0809180008F7D80938000089580919D
:1002C0008000877FF9CF84B58F7702C084B58F7D9A
:1002D00084BD08958091B0008F7703C08091B000F5
:1002E0008F7D8093B0000895809190008F7707C034
:1002F000809190008F7D03C080919000877F8093D4
:10030000900008958091A0008F7707C08091A00091
:100310008F7D03C08091A000877F8093A000089507
:10032000809120018F7707C0809120018F7D03C0CD
:1003300080912001877F8093200108951F93CF93A0
:10034000DF93282F30E0F901EA5FFD4F8491F90136
:10035000E054FE4FD491F901E658FE4FC491CC23EE
:10036000C1F0162F811195DFEC2FF0E0EE0FFF1F8B
:10037000EA5BFE4FA591B4918FB7F894111105C0B7
:100380009C91ED2FE095E92302C0EC91ED2BEC93CD
:100390008FBFDF91CF911F910895CF93DF9390E0AE
:1003A000FC01E054FE4F2491FC01E658FE4F84917D
:1003B000882361F190E0880F991FFC01E45DFE4FF6
:1003C000C591D491FC01EA5BFE4FA591B4916111F6
:1003D00009C09FB7F8948881209582238883EC9187
:1003E0002E230BC0623061F49FB7F8943881822FBE
:1003F000809583238883EC912E2B2C939FBF06C07E
:100400008FB7F894E8812E2B28838FBFDF91CF918F
:1004100008951F93CF93DF93182FEB0161E0BDDFA9
:10042000209711F460E004C0CF3FD10531F461E0C2
:10043000812FDF91CF911F9181CFE12FF0E0EA5F13
:10044000FD4FE4914E2F50E0FA013197E231F10572
:1004500008F09CC08827EC57FF4F8F4F6FC384B5BF
:10046000806884BDC7BD97C084B5806284BDC8BDA7
:1004700092C080918000806880938000D093890032
:10048000C093880088C08091800080628093800043
:10049000D0938B00C0938A007EC0809180008860DA
:1004A00080938000D0938D00C0938C0074C08091A5
:1004B000B00080688093B000C093B3006CC080919E
:1004C000B00080628093B000C093B40064C080919B
:1004D0009000806880939000D0939900C09398001A
:1004E0005AC080919000806280939000D0939B00CE
:1004F000C0939A0050C080919000886080939000D3
:10050000D0939D00C0939C0046C08091A00080685D
:100510008093A0008091A0008F7B8093A000D09357
:10052000A900C093A80037C08091A000806280938A
:10053000A000D093AB00C093AA002DC08091A00072
:1005400088608093A000D093AD00C093AC0023C01E
:1005500080912001806880932001D0932901C0936D
:10056000280119C080912001806280932001D093DE
:100570002B01C0932A010FC08091200188608093D5
:100580002001D0932D01C0932C0105C0C038D105A6
:100590000CF04DCF47CFDF91CF911F9108953FB71A
:1005A000F8948091010290910202A0910302B0910F
:1005B000040226B5A89B05C02F3F19F00196A11D86
:1005C000B11D3FBFBA2FA92F982F8827820F911DE9
:1005D000A11DB11DBC01CD0142E0660F771F881F30
:1005E000991F4A95D1F708958F929F92AF92BF922B
:1005F000CF92DF92EF92FF926B017C01D0DF4B0133
:100600005C01C114D104E104F104E9F0C8DFDC01AC
:10061000CB0188199909AA09BB09883E9340A10515
:10062000B10578F321E0C21AD108E108F10888EE9B
:10063000880E83E0981EA11CB11CC114D104E104F2
:10064000F10421F7DECFFF90EF90DF90CF90BF90C5
:10065000AF909F908F9008951F920F920FB60F92B8
:1006600011242F933F938F939F93AF93BF938091C8
:10067000050290910602A0910702B0910802309104
:10068000000223E0230F2D3720F40196A11DB11D98
:1006900005C026E8230F0296A11DB11D209300027C
:1006A0008093050290930602A0930702B09308027C
:1006B0008091010290910202A0910302B091040284
:1006C0000196A11DB11D8093010290930202A09397
:1006D0000302B0930402BF91AF919F918F913F911C
:1006E0002F910F900FBE0F901F901895CF92DF9211
:1006F000EF92FF92E9E0F2E01182108213821282FF
:10070000A6E0B0E0B583A48388EBC82E8BE0D82E9A
:10071000E12CF12CC686D786E08AF18A64E070E08D
:10072000738B628B42E050E0558B448B23E030E0CA
:10073000378B268B85E090E0918F808F138E128E01
:10074000E5E2F2E01182108213821282B583A48363
:10075000C686D786E08AF18A738B628B558B448B71
:10076000378B268B918F808F138E128EFF90EF9098
:10077000DF90CF900895789484B5826084BD84B56D
:10078000816084BD85B5826085BD85B5816085BD8C
:1007900080916E00816080936E0010928100809144
:1007A00081008260809381008091810081608093CC
:1007B0008100809180008160809380008091B100F1
:1007C00084608093B1008091B00081608093B0001C
:1007D000809191008260809391008091910081606E
:1007E000809391008091900081608093900080912F
:1007F000A10082608093A1008091A100816080931C
:10080000A1008091A00081608093A00080912101CF
:100810008260809321018091210181608093210178
:100820008091200181608093200180917A00846012
:1008300080937A0080917A00826080937A00809120
:100840007A00816080937A0080917A00806880933A
:100850007A001092C10060E080913D029EDD61E06F
:1008600080913B029ADD61E08091370296DD61E084
:100870008091390292DD60E070E080913702C9DD3D
:100880006FEF70E080913902C4DD6FEF70E080910E
:100890003B02BFDD68EE73E080E090E0A5DE6FEF25
:1008A00070E080913702B5DD60E070E08091390240
:1008B000B0DD60E070E080913B02ABDD68EE73E09C
:1008C00080E090E091DE2FB7F8948091050290913E
:1008D0000602A0910702B09108022FBF80932B025D
:1008E00090932C02A0932D02B0932E0261E08DE034
:1008F00054DD00E010E0C6E0D0E092E0E92EF12CFB
:100900002EE0C22ED12C6FE78DE018DD20913D0244
:1009100030913E023327F901EA5FFD4F8491F901DE
:10092000E054FE4FA490F901E658FE4FB490BB206E
:1009300099F08111AEDCEB2DF0E0EE0FFF1FE05AD5
:10094000FE4FA591B491EC91AE2231E020E009F484
:1009500030E0832F922F02C080E090E0909340021D
:1009600080933F022091250230912602813091052B
:1009700059F4232BE1F59093260280932502D0921F
:100980002A02C092290268C02130310581F5F09217
:100990002602E092250210922A0210922902109259
:1009A00028021092270280912B0290912C02A09194
:1009B0002D02B0912E0280932F0290933002A093CB
:1009C0003102B09332022FB7F894809105029091D2
:1009D0000602A0910702B09108022FBF80932B025C
:1009E00090932C02A0932D02B0932E0235C040911B
:1009F00033025091340260913502709136022FB764
:100A0000F8948091050290910602A0910702B0919E
:100A100008022FBF80932F0290933002A0933102DF
:100A2000B093320280902B0290902C02A0902D0265
:100A3000B0902E0288199909AA09BB0948175907CD
:100A40006A077B0708F46AC0D0932A02C093290280
:100A5000109228021092270280912502909126027E
:100A6000009751F460912702709128028091390219
:100A7000D0DC6FEF70E013C08130910519F46FEF97
:100A800070E006C0029771F460912702709128020D
:100A900080913902BEDC609127027091280280911A
:100AA0003702B7DC2091290230912A028091270277
:100AB00090912802820F931F90932802809327021F
:100AC000AC01415051094E3F5105A8F03195219597
:100AD000310930932A02209329028F3F910519F0A2
:100AE00014F08FEF90E097FF02C080E090E09093C9
:100AF000280280932702609127027091280280913A
:100B00003B0287DC6EE170E080E090E06DDD011576
:100B1000110509F4F8CE0E940000F5CE809125025F
:100B200090912602029709F08FCF10922602109220
:100B30002502D0932A02C09329028ECFEE0FFF1F09
:100B4000881F8BBF0790F691E02D1994F894FFCF82
:00000001FF
