:1000000026C1000054C1000052C1000050C10000D0
:100010004EC100004CC100004AC1000048C10000B0
:1000200046C1000044C1000042C1000040C10000C0
:100030003EC100003CC100003AC1000038C10000D0
:1000400036C1000034C1000032C1000030C10000E0
:100050002EC100002CC100002AC10000DEC5000036
:1000600026C10000A4C5000079C5000020C1000021
:100070001EC100001CC100001AC1000018C1000010
:1000800016C1000014C1000012C1000010C1000020
:100090000EC100000CC100000AC1000008C1000030
:1000A00006C1000004C1000002C1000000C1000040
:1000B000FEC00000FCC00000FAC00000F8C0000054
:1000C000F6C00000F4C00000F2C00000F0C0000064
:1000D000EEC00000ECC00000EAC00000E8C0000074
:1000E000E6C00000A702AA0299029D02A302E10253
:1000F000AE02B202B802BC02C002C602CA02CE02FE
:10010000E102D402D802DC029B03A003A503AF03E3
:10011000B9033204C303CB03D303DD03E703F103C5
:1001200000040A04320414041E0428040000210000
:10013000240027002A002D003000330001010000B8
:10014000040107010A0100002200250028002B00FD
:100150002E003100340002010000050108010B01EE
:1001600000000A0B02090C0D0E0807030401000031
:10017000000000000000000000000000000000007F
:10018000000000000000000000000000121110003C
:10019000000000000000000000000000000000005F
:1001A00000000000000000002000230026002900BD
:1001B0002C002F003200000100000301060109019C
:1001C00005050505070508080808020202020A0AD3
:1001D00008080404040401010101010101010303F1
:1001E000030303030303040707070C0C0C0C0C0C9C
:1001F0000C0C0202020206060606060606060B0B99
:100200000B0B0B0B0B0B01021020200808102040D9
:1002100010204080020102010804020101020408CA
:100220001020408080402010080402018004020158
:1002300080402010080402010804020101020408A1
:10024000102040800102040810204080050A11247B
:100250001FBECFEFD1E2DEBFCDBF00E00CBF12E08A
:10026000A0E0B2E0ECEFF4E100E00BBF02C00790C9
:100270000D92A436B107D9F723E0A4E6B2E001C09D
:100280001D92A037B207E1F711E0C7E2D1E000E02C
:1002900006C021970109802FFE010E94700AC63214
:1002A000D10780E00807A9F747D50C947C0AA8CEAF
:1002B000CF92DF92EF92FF920F931F93CF93DF9332
:1002C0006C017A018B01C0E0D0E0CE15DF0589F02A
:1002D000D8016D918D01D601ED91FC910190F081D5
:1002E000E02DC6011995892B11F47E0102C02196DB
:1002F000ECCFC701DF91CF911F910F91FF90EF904D
:10030000DF90CF900895089580E090E00895FC017B
:10031000538D448D252F30E0842F90E0821B930B6A
:10032000541710F0CF96089501970895FC01918D10
:10033000828D981761F0828DDF01A80FB11D5D9647
:100340008C91928D9F5F9F73928F90E008958FEFB5
:100350009FEF0895FC01918D828D981731F0828D69
:10036000E80FF11D858D90E008958FEF9FEF0895C0
:10037000FC01918D228D892F90E0805C9F4F821B24
:1003800091098F739927089583ED92E0F1DF21E0C1
:10039000892B09F420E0822F0895FC01848DDF0170
:1003A000A80FB11DA35ABF4F2C91848D90E00196E8
:1003B0008F739927848FA689B7892C93A089B189D7
:1003C0008C9180648C93938D848D981306C00288E1
:1003D000F389E02D80818F7D80830895EF92FF92D5
:1003E0000F931F93CF93DF93EC0181E0888F9B8D58
:1003F0008C8D981305C0E889F989808185FD23C01B
:10040000F62E0B8D10E00F5F1F4F0F731127E02E9C
:100410008C8DE8120BC00FB607FCFACFE889F9897A
:10042000808185FFF5CFCE01B8DFF2CF8B8DFE0145
:10043000E80FF11DE35AFF4FF0820B8FEA89FB8929
:100440008081806207C0EE89FF896083E889F9892D
:1004500080818064808381E090E0DF91CF911F9163
:100460000F91FF90EF900895CF93DF93EC01888D6B
:100470008823C1F0EA89FB89808185FD05C0A889B0
:10048000B9898C9186FD0EC00FB607FCF5CF80812F
:1004900085FFF2CFA889B9898C9185FFEDCFCE0178
:1004A0007CDFE8CFDF91CF91089580E090E0892B49
:1004B00019F06ADF811125C080E090E0892B41F0BE
:1004C00080E090E0892B21F00E94000081111CC087
:1004D00080E090E0892B41F080E090E0892B21F0D2
:1004E0000E940000811113C080E090E0892BA1F0F0
:1004F00080E090E0892B81F00E94000081110AC009
:1005000008950E940000D8CF0E940000E1CF0E9411
:100510000000EACF0C940000089590E0FC013197B0
:10052000E231F10508F04DC08827EE58FF4F8F4F9C
:10053000D7C7809180008F7703C0809180008F7D26
:1005400080938000089580918000877FF9CF84B5E3
:100550008F7702C084B58F7D84BD08958091B000EF
:100560008F7703C08091B0008F7D8093B000089595
:10057000809190008F7707C0809190008F7D03C09D
:1005800080919000877F8093900008958091A000D3
:100590008F7707C08091A0008F7D03C08091A0005D
:1005A000877F8093A0000895809120018F7707C0F6
:1005B000809120018F7D03C080912001877F8093EF
:1005C00020010895CF93DF93282F30E0F901E05AFE
:1005D000FE4F8491F901EA5FFD4FD491F901E05497
:1005E000FE4FC491CC2389F0811197DFEC2FF0E00E
:1005F000EE0FFF1FEA55FE4FA591B491EC91ED234C
:1006000081E090E021F480E002C080E090E0DF91A2
:10061000CF9108951F93CF93DF93282F30E0F901F6
:10062000E05AFE4F8491F901EA5FFD4FD491F90140
:10063000E054FE4FC491CC23C1F0162F81116DDF21
:10064000EC2FF0E0EE0FFF1FEA5BFE4FA591B49197
:100650008FB7F894111105C09C91ED2FE095E92317
:1006600002C0EC91ED2BEC938FBFDF91CF911F91E6
:100670000895CF93DF9390E0FC01EA5FFD4F249152
:10068000FC01E054FE4F8491882361F190E0880FD3
:10069000991FFC01E45DFE4FC591D491FC01EA5B1A
:1006A000FE4FA591B491611109C09FB7F89488815C
:1006B000209582238883EC912E230BC0623061F455
:1006C0009FB7F8943881822F809583238883EC919B
:1006D0002E2B2C939FBF06C08FB7F894E8812E2B4A
:1006E00028838FBFDF91CF9108951F93CF93DF931E
:1006F000182FEB0161E0BDDF209711F460E004C02A
:10070000CF3FD10531F461E0812FDF91CF911F916F
:1007100081CFE12FF0E0E05AFE4FE4914E2F50E000
:10072000FA013197E231F10508F09CC08827EC57B7
:10073000FF4F8F4FD5C684B5806884BDC7BD97C0B5
:1007400084B5806284BDC8BD92C0809180008068FD
:1007500080938000D0938900C093880088C08091E6
:100760008000806280938000D0938B00C0938A00C9
:100770007EC080918000886080938000D0938D003F
:10078000C0938C0074C08091B00080688093B000EA
:10079000C093B3006CC08091B00080628093B000C1
:1007A000C093B40064C080919000806880939000F2
:1007B000D0939900C09398005AC0809190008062B5
:1007C00080939000D0939B00C0939A0050C080917A
:1007D0009000886080939000D0939D00C0939C000F
:1007E00046C08091A00080688093A0008091A00006
:1007F0008F7B8093A000D093A900C093A80037C03E
:100800008091A00080628093A000D093AB00C09341
:10081000AA002DC08091A00088608093A000D09392
:10082000AD00C093AC0023C080912001806880930C
:100830002001D0932901C093280119C08091200183
:10084000806280932001D0932B01C0932A010FC0B6
:1008500080912001886080932001D0932D01C09366
:100860002C0105C0C038D1050CF04DCF47CFDF912A
:10087000CF911F910895863308F0865390917B00A5
:10088000282F2870977F922B90937B00877080642D
:1008900080937C0080917A00806480937A008091BC
:1008A0007A0086FDFCCF809178002091790090E05D
:1008B000922B08953FB7F8948091690290916A0253
:1008C000A0916B02B0916C0226B5A89B05C02F3F8A
:1008D00019F00196A11DB11D3FBFBA2FA92F982F66
:1008E0008827820F911DA11DB11DBC01CD0142E0E1
:1008F000660F771F881F991F4A95D1F708958F9229
:100900009F92AF92BF92CF92DF92EF92FF926B01D4
:100910007C01D0DF4B015C01C114D104E104F1047E
:10092000E9F0C8DFDC01CB0188199909AA09BB09E4
:10093000883E9340A105B10578F321E0C21AD108A1
:10094000E108F10888EE880E83E0981EA11CB11C16
:10095000C114D104E104F10421F7DECFFF90EF9040
:10096000DF90CF90BF90AF909F908F9008952FB75A
:10097000F89460916502709166028091670290918F
:1009800068022FBF0895CF93C82F61E072DE60E048
:100990008C2FCF913FCECF93C82F60E06ADE61E00D
:1009A0008C2FCF9137CE0F931F93CF93DF9386E198
:1009B00090E0F1DF88E190E0EEDF83EC90E00197DA
:1009C000F1F786E1FFDD0197E1F38FE090E0019719
:1009D000F1F786E1F7DD892BE1F308E010E0D1E0E3
:1009E000C0E086E1EFDD0197E1F388E1EBDD0197FF
:1009F00009F4CD2B86E1E6DD892BE1F3DD0F015013
:100A0000110979F786E1DEDD0197E1F386E1DADDB0
:100A1000892BE1F386E1D6DD0197E1F386E1D2DDB2
:100A2000892BE1F386E190E0AEDF8C2FDF91CF914F
:100A30001F910F910895CF93DF93C4E1D2E0888195
:100A4000229660E070E051DE82E0C032D807B9F74C
:100A5000DF91CF910895009761F0FC010190002093
:100A6000E9F73197AF01481B590BBC0183ED92E0C8
:100A70001FCC80E090E008953BD58F929F92AF927B
:100A8000BF92CF92DF92EF92FF92CF93DF93CDB7D9
:100A9000DEB7A1970FB6F894DEBF0FBECDBF6C01D5
:100AA000990FEE08FF08F7FE2AC0E091D302F091FB
:100AB000D4020190F081E02D6DE283ED92E0199572
:100AC00022273327A9012C193D094E095F0919A2D4
:100AD000CE0181967C019AE0892E912CA12CB12C1B
:100AE000CA01B901A5019401BDD4605DF70162930B
:100AF0007F01211531054105510591F719C0A70165
:100B0000960119A2CE0181967C018AE0882E912C53
:100B1000A12CB12CCA01B901A5019401A3D4605D37
:100B2000F70162937F01211531054105510591F7C8
:100B3000C70191DF8EE592E08EDFA1960FB6F894A3
:100B4000DEBF0FBECDBFDF91CF91FF90EF90DF9062
:100B5000CF90BF90AF909F908F9008951F920F926B
:100B60000FB60F9211240BB60F922F933F934F9312
:100B70005F936F937F938F939F93AF93BF93EF9305
:100B8000FF9383ED92E009DCFF91EF91BF91AF916C
:100B90009F918F917F916F915F914F913F912F9195
:100BA0000F900BBE0F900FBE0F901F9018951F92C5
:100BB0000F920FB60F9211240BB60F922F938F93B3
:100BC0009F93EF93FF93E091E302F091E402808121
:100BD000E091E902F091EA0282FD12C090818091D9
:100BE000EC028F5F8F732091ED02821751F0E0913C
:100BF000EC02F0E0ED52FD4F958F8093EC0201C0C6
:100C00008081FF91EF919F918F912F910F900BBE5B
:100C10000F900FBE0F901F9018951F920F920FB656
:100C20000F9211242F933F938F939F93AF93BF9372
:100C30008091650290916602A0916702B09168026E
:100C40003091640223E0230F2D3720F40196A11D7B
:100C5000B11D05C026E8230F0296A11DB11D2093EA
:100C600064028093650290936602A0936702B0933A
:100C700068028091690290916A02A0916B02B09122
:100C80006C020196A11DB11D8093690290936A02C6
:100C9000A0936B02B0936C02BF91AF919F918F9123
:100CA0003F912F910F900FBE0F901F901895CF92EC
:100CB000DF92EF92FF920F931F93E82FF92F05C059
:100CC000015011092109310961F19081962394178E
:100CD000B9F305C0015011092109310911F19081C1
:100CE00096239413F7CFC12CD12CE12CF12C0AC000
:100CF0008FEFC81AD80AE80AF80A0C151D052E0548
:100D00003F0579F080818623841791F36C2D7D2D2A
:100D10008E2D9F2D1F910F91FF90EF90DF90CF9020
:100D2000089560E070E080E090E01F910F91FF90E7
:100D3000EF90DF90CF900895CF93DF9300D0CDB7A1
:100D4000DEB7789484B5826084BD84B5816084BD4B
:100D500085B5826085BD85B5816085BD80916E0059
:100D6000816080936E00109281008091810082608A
:100D700080938100809181008160809381008091C7
:100D800080008160809380008091B10084608093B6
:100D9000B1008091B00081608093B000809191009B
:100DA0008260809391008091910081608093910096
:100DB000809190008160809390008091A10082607A
:100DC0008093A1008091A10081608093A100809117
:100DD000A00081608093A0008091210182608093B7
:100DE0002101809121018160809321018091200166
:100DF00081608093200180917A00846080937A00E2
:100E000080917A00826080937A0080917A0081607C
:100E100080937A0080917A00806880937A001092A3
:100E2000C100E091E302F091E40282E08083E0916E
:100E3000DF02F091E0021082E091E102F091E20223
:100E40008FEC80831092EB02E091E702F091E802D0
:100E500086E08083E091E502F091E6028081806186
:100E60008083E091E502F091E602808188608083D2
:100E7000E091E502F091E602808180688083E09154
:100E8000E502F091E60280818F7D808370DD6093C2
:100E90006F0270937002809371029093720261E00E
:100EA0008CE0E7DB61E08DE0E4DB61E08AE1E1DB3F
:100EB00060E08AE1DEDB86E190E06DDD88E190E0D4
:100EC0006ADD61E087E2D5DB60E089E2D2DBE12C1C
:100ED000F12C00E010E086E0E816F10464F4F8017B
:100EE000EA5BFD4F60E08081C4DB2FEFE21AF20A7B
:100EF0000E5F1F4FF0CF05EB12E0A4E1CA2EA2E077
:100F0000DA2E7601F801119211928F01F70180819A
:100F1000F2E0EF0EF11C61E0ACDB22E0013C1207D5
:100F200089F704E312E0F80180810E5F1F4F60E053
:100F3000A0DBF2E000341F07B1F760E080E299DB4C
:100F400060E08EE196DB60E08CE193DB61E087E0BE
:100F500090DB60E084E38DDB60E082E38ADB60E0CD
:100F600080E387DB60E08EE284DB6FEF70E087E098
:100F7000BCDB6CE271E080E090E0C1DCF6018081D6
:100F8000F2E0CF0ED11C6FEF70E0AFDB6CE271E0EE
:100F900080E090E0B4DC20E2C21622E0D20671F7D5
:100FA00060E070E087E0A1DB46DD43E0242E312CD9
:100FB0005FE0452E512C6AE3862E912CA12CB12C9A
:100FC0007BEAE72E74E0F72EE3E26E2E712CF3EC51
:100FD000CF2ED12C02E512E087EC92E09B838A832E
:100FE000F80180810E5F1F4F46DCEA81FB8181930F
:100FF0009193FB83EA8341DDF2E00C351F0781F713
:1010000061E088E036DB60E088E004DBC101019745
:10101000F1F761E088E0FEDAC2010197F1F760E0E4
:1010200088E0F8DA60E088E024DBEEE0F2E064914A
:10103000E8ECF1E08491E82FF0E0EE0FFF1FEA55B5
:10104000FE4F8591949100E412E42FE030E0462FAA
:101050002EDE611571058105910549F0DC01CB019A
:101060000196A11DB11DBC01CD019F7003C060E0C0
:1010700070E0CB01A501940117D22093C3023093F5
:10108000C4024093C5025093C602C901F6DC8AE14E
:1010900099DA9093C2028093C102EFDC8091B5028D
:1010A0009091B6026091BF027091C002680F791FE3
:1010B0007093C0026093BF022091B3023091B402DA
:1010C000280F391F3093B4022093B30240910002DD
:1010D00050910102840F951F9093B6028093B50240
:1010E00001978E3F910538F05195419551095093E4
:1010F0000102409300028091C1029091C202892BAB
:1011000011F48DE002C0B9018CE0EFDA88E190E0E3
:1011100042DC86E190E03FDCC7010197F1F786E110
:1011200090E031DCC7010197F1F788E190E02BDC1A
:10113000C3010197F1F786E190E02DDC86E142DA08
:101140000197E1F388E090E09B838A8301E01BEE46
:10115000212F2170298388E190E010FF02C01BDC61
:1011600001C011DC86E12EDA892BE1F386E12ADA6F
:101170000197E1F32981022716958A819B810197C6
:101180009B838A83892B21F788E190E0002311F06B
:1011900002DC01C0F8DB86E115DA892BE1F386E198
:1011A00011DA0197E1F388E190E0F5DBC6010197E0
:1011B000F1F786E107DA0197E1F386E103DA892B9B
:1011C000E1F388E1FFD9892BC1F386E190E0DBDB15
:1011D000EADBE9DBE8DB182FE6DB812F110F990B47
:1011E0004CDC89E2EFD99093B2028093B10245DCE6
:1011F0008091B1029091B202019751F461E087E2CF
:1012000009DA06E412E0E5EAF2E0FB83EA8302C0D1
:1012100060E0F5CFF80180810E5F1F4FD3D9EA81DE
:10122000FB8181939193FB83EA8327DCF2E0023513
:101230001F0781F788E3C6D99093A2028093A10289
:101240001CDC89E3BFD99093A4028093A30215DC30
:1012500000E412E08BE992E09B838A83F8018081AD
:101260000E5F1F4FAFD9EA81FB8181939193FB837E
:10127000EA8303DCF2E006341F0781F78FE892E08F
:101280009B838A8304E312E0F80180810E5F1F4F85
:1012900099D9EA81FB8181939193FB83EA83EDDB0A
:1012A000F2E000341F0781F786E38CD990938C021B
:1012B00080938B02E2DB87E385D990938E02809343
:1012C0008D02DBDB08E212E08FE792E09B838A83EA
:1012D000F80180810E5F1F4F75D9EA81FB818193F0
:1012E0009193FB83EA83C9DBF2E004331F0781F7A4
:1012F00000E212E087E792E09B838A83F801808115
:101300000E5F1F4F5FD9EA81FB8181939193FB832D
:10131000EA83B3DBF2E008321F0781F78EE3ABDA32
:101320009093740280937302A8DB8FE3A4DA909306
:10133000760280937502A1DB6FEF70E087E0D5D96C
:1013400016DB00916F0210917002209171023091B2
:101350007202601771078207930748F408DB6093F5
:101360006F02709370028093710290937202FFDAA1
:1013700000916F02109170022091710230917202FF
:10138000DC01CB01801B910BA20BB30B813191408F
:10139000A105B10580F14FDB80916D0290916E0245
:1013A0000196863091052CF490936E0280936D0225
:1013B00004C010926E0210926D0280916D029091A5
:1013C0006E02880F991FFC01E157FD4F208131818A
:1013D0002130310539F4FC01EC5EFD4F6FEF70E018
:1013E000808183D9C4DA60936F0270937002809316
:1013F00071029093720280E692E02DDB64E170E06E
:1014000080E090E07CDA51D8E5CDE3EDF2E01382A4
:10141000128288EE93E0A0E0B0E084839583A683F7
:10142000B78386E092E09183808385EC90E0958796
:10143000848784EC90E09787868780EC90E0918B9E
:10144000808B81EC90E0938B828B82EC90E0958B8B
:10145000848B86EC90E0978B868B118E128E138E88
:10146000148E0895A1E21A2EAA1BBB1BFD010DC00C
:10147000AA1FBB1FEE1FFF1FA217B307E407F50744
:1014800020F0A21BB30BE40BF50B661F771F881F20
:10149000991F1A9469F760957095809590959B01B6
:1014A000AC01BD01CF010895052E97FB16F4009401
:1014B0000FD057FD05D0D6DF07FC02D046F408C098
:1014C00050954095309521953F4F4F4F5F4F089570
:1014D00090958095709561957F4F8F4F9F4F0895A0
:1014E000EE0FFF1F881F8BBF0790F691E02D199418
:0C14F00081E090E0F89400C0F894FFCF79
:1014FC00050000000000EE01580187013402B8011C
:10150C009601AA0104000500060009000A000B0060
:10151C003400320030002E002C002A002800260057
:10152C0024002200170019001B001D001F002100C1
:10153C0020001E001C003500330031002F002D0050
:10154C002B004000410042004300440045002C00A9
:04155C000D0A000074
:00000001FF
